:100000000C94DB370C94FC370C94FC370C94FC37C5
:100010000C94FC370C94FC370C94FC370C94FC3794
:100020000C94FC370C94FC370C94FC370C944F80E8
:100030000C94FC370C94FC370C94487C0C94FC37E3
:100040000C94FC370C94FC370C94FC370C94FC3764
:100050000C94FC370C94FC370C94FC370C94FC3754
:100060000C94FC370C94FF830C94B5830C94FC37F0
:100070000C94B9870C9453870C9491870C94FC379B
:100080000C94D9800C94FC370C94FC370C94FC37FE
:100090000C94FC370C94FC370C94FC370C94FC3714
:1000A0000C94FC370C94FC370C94FC370C94466988
:1000B0000C94EA690C94FC370C94FC370C94DD7BAF
:1000C0000C94FC370C94FC370C94FC370C94FC37E4
:1000D0000C94FC370C94FC370C94FC370C94FC37D4
:1000E0000C94628B0C94FC370C94FC370C94FC370A
:1000F0000C94FC370C94FC370C94FC370C94FC37B4
:100100000C941D690C94C1690C94F4680C94986962
:100110000C94FC370C94FC370C94FC370C94FC3793
:100120000C94FC370C94FC370C94FC370C94FC3783
:100130000C94FC370C94077C0C94FC370C94FC3723
:100140000C94FC370C94FC370C94FC370C94FC3763
:100150000C94FC370C94FC370C94588B0C94FC37A3
:100160000C94FC370C94FC370C94FC370C94FC3743
:100170000C94FC370C94FC370C94FC370C94FC3733
:100180000C94FC370C94FC370C94FC370C94FC3723
:100190000C94FC370C94FC370C94FC370C94FC3713
:1001A0000C946F690C94136A0C94FC370C94FC3714
:1001B0000C945A7A0C94FC370C94FC370C94FC3752
:1001C0000C94FC370C94FC370C94FC370C94FC37E3
:1001D0000C94FC370C94FC370C94FC370C94FC37D3
:1001E0000C94FC370C94FC37016616662B66B868D5
:1001F000B8688365A263B868406655666A66AE668D
:10020000FB649466B8689865B8687F66AD65766586
:10021000B868B868B868C265D765EC65084AD73B66
:100220003BCE016E84BCBFFDC12F3D6C74319ABDC5
:1002300056833DDA3D00C77F11BED9E4BB4C3E91E9
:100240006BAAAABE000000803F05A84CCDB2D44ED8
:10025000B93836A9020C50B9918688083CA6AAAADA
:100260002ABE000000803F07634236B79BD8A71A1A
:1002700039685618AEBAAB558C1D3CB7CC5763BD28
:100280006DEDFD753EF6177231BF000000803F082E
:10029000000000BE922449123EABAAAA2ABECDCCD1
:1002A000CC4C3E00000080BEABAAAAAA3E000000D3
:1002B00000BF000000803F0000000000084178D32C
:1002C000BB4387D1133D190E3CC3BD4282AD2B3ECB
:1002D00068EC8276BED98FE1A93E4C80EFFFBE016B
:1002E000C4FF7F3F00000000006E616E00696E6613
:1002F00000737973006662000000000702A5214BBD
:10030000503347404670346686B94373797300664C
:1003100076000000000703C1214B5033474046746C
:10032000343333733F73797300687600000000073D
:1003300000DF214B503347AF4A78340000C0407390
:100340007973006964000000000400FD2108505426
:100350005340466C3400000000000000006E0000B6
:1003600000000001001122B84F11479446272200D7
:10037000000000000000006C696E650000010011C3
:1003800022B84FA04A944627220000000000000037
:100390000066656564000000022522574FB04840A2
:1003A000466C3400000000000000007374617400AB
:1003B0000000003D220850885440466C3400000084
:1003C00000000000006D6163730000000056220809
:1003D000507A5440466C3400000000000000006376
:1003E000796373000000006F2208506C5440466C23
:1003F0003400000000000000006D6F747300000006
:1004000000882208505E5440466C34000000000012
:10041000000000686F6C6400000000A122085050CA
:100420005440466C34000000000000000076656C0B
:100430000000000002BA22574F6F4A40466C340059
:1004400000000000000000756E697400000000D11B
:10045000220850425440466C340000000000000066
:1004600000636F6F7200000000EA220850345440AD
:10047000466C3400000000000000006D6F6D6F00DE
:1004800000000003230850265440466C340000004E
:100490000000000000706C616E000000001C23086A
:1004A00050185440466C34000000000000000070FA
:1004B00061746800000000352308500A5440466CFF
:1004C0003400000000000000006469737400000044
:1004D000004E230850FC5340466C340000000000DE
:1004E00000000066726D6F0000000067230850EE88
:1004F0005340466C34000000006D706F006D706FEB
:1005000078000000038023534F4C4A40466C34006F
:100510000000006D706F006D706F79000000038047
:1005200023534F4C4A40466C34000000006D706FFE
:10053000006D706F7A000000038023534F4C4A40D7
:10054000466C34000000006D706F006D706F6100CC
:100550000000038023534F4C4A40466C3400000097
:10056000006D706F006D706F620000000380235398
:100570004F4C4A40466C34000000006D706F006DB7
:10058000706F63000000038023534F4C4A40466C59
:100590003400000000706F7300706F73780000000B
:1005A000039A23474F294A40466C340000000070EC
:1005B0006F7300706F7379000000039A23474F290F
:1005C0004A40466C3400000000706F7300706F7317
:1005D0007A000000039A23474F294A40466C3400B2
:1005E000000000706F7300706F7361000000039A69
:1005F00023474F294A40466C3400000000706F7357
:1006000000706F7362000000039A23474F294A402D
:10061000466C3400000000706F7300706F736300ED
:100620000000039A23474F294A40466C34000000DB
:10063000006F6673006F66737800000003B0235389
:100640004F064A40466C34000000006F6673006F2E
:1006500066737900000003B023534F064A40466C8E
:1006600034000000006F6673006F66737A0000004C
:1006700003B023534F064A40466C34000000006F1D
:100680006673006F66736100000003B023534F066A
:100690004A40466C34000000006F6673006F66735A
:1006A0006200000003B023534F064A40466C3400FA
:1006B0000000006F6673006F66736300000003B094
:1006C00023534F064A40466C3400000000686F6DAB
:1006D00000686F6D6500000000C9230850E053F505
:1006E000496C3400000000686F6D00686F6D780021
:1006F000000000E223474FEF464046043C00000064
:1007000000686F6D00686F6D7900000000E223479C
:100710004FEF464046053C00000000686F6D0068E2
:100720006F6D7A00000000E223474FEF4640460617
:100730003C00000000686F6D00686F6D6100000094
:1007400000E223474FEF464046073C0000000068A8
:100750006F6D00686F6D6200000000E223474FEF8D
:10076000464046083C00000000686F6D00686F6DF1
:100770006300000000E223474FEF464046093C007B
:10078000000000000000007372000000000000FE86
:1007900023F249EE49EB496C3400000000000000F0
:1007A000007172000000000000FF23B84FD64940DE
:1007B000466C34000000000000000071660000007C
:1007C000000000FE236247EA46D2496C3400000074
:1007D00000000000006572000000000000FE2362BF
:1007E00047CB4940466C3400000000000000007216
:1007F000780000000000000624B84FB64940466C5F
:100800003400000000000000006D7367000000006D
:10081000000D240850EA4640466C340000000000F9
:100820000000007465737400000000FE2362474AF4
:100830006C897F7C34000000000000000064656665
:100840006100000000FE236247706C654B6C340051
:1008500000000000000000626F6F7400000000FEE6
:10086000236247966CB2496C34000000000000001F
:100870000068656C7000000000FE236247146C4045
:10088000466C34000000000000000068000000001A
:10089000000000FE236247146C40466C34000000E8
:1008A0000031000000316D61000000030011247A66
:1008B0004EEF46424658390000000031000000313A
:1008C000736100000003023E24214E3347274B5C36
:1008D000396666E63F3100000031747200000003A3
:1008E000035D24AF4DB0481A4B60390000A03F3182
:1008F000000000316D69000000030086247A4EEF8D
:100900004619565939000000413100000031706F1E
:100910000000000300AB247A4EEF4694495A390098
:100920000000003100000031706D0000000300D9AC
:10093000247A4EEF4666465B390000803F32000065
:1009400000326D61000000030011247A4EEF464230
:100950004668390000803F320000003273610000B9
:100960000003023E24214E3347274B6C396666E66E
:100970003F3200000032747200000003035D24AFB8
:100980004DB0481A4B70390000A03F3200000032D1
:100990006D69000000030086247A4EEF46195669FF
:1009A00039000000413200000032706F0000000387
:1009B00000AB247A4EEF4694496A390000000032B9
:1009C00000000032706D0000000300D9247A4EEF61
:1009D0004666466B390000803F33000000336D618E
:1009E000000000030011247A4EEF46424678390099
:1009F0000000403300000033736100000003023E3A
:100A000024214E3347274B7C396666E63F3300008E
:100A10000033747200000003035D24AF4DB0481A28
:100A20004B80390000A03F33000000336D690000A7
:100A300000030086247A4EEF4619567939000000EB
:100A4000413300000033706F0000000300AB247AD4
:100A50004EEF4694497A390000000033000000331D
:100A6000706D0000000300D9247A4EEF4666467B85
:100A7000390000803F34000000346D610000000345
:100A80000011247A4EEF46424688390000803F34F8
:100A900000000034736100000003023E24214E3345
:100AA00047274B8C396666E63F3400000034747289
:100AB00000000003035D24AF4DB0481A4B9039008D
:100AC00000A03F34000000346D6900000003008680
:100AD000247A4EEF4619568939000000413400004F
:100AE0000034706F0000000300AB247A4EEF469490
:100AF000498A39000000003400000034706D0000A5
:100B0000000300D9247A4EEF4666468B3900000078
:100B1000007800000078616D0000000300072546A2
:100B20004DCC53E54898390000803F7800000078AC
:100B3000766D00000003002325AF4DB04876489D38
:100B40003900001644780000007866720000000347
:100B5000004B25AF4DB048764899390000164478CF
:100B600000000078746D00000003007325AF4DB0E5
:100B7000487648A1390080ED4378000000786A6D1E
:100B800000000003009525AF4DB0487648A53920F8
:100B9000BCBE4C78000000786A680000000300BB0F
:100BA00025AF4DB0487648C13920BCBE4C78000016
:100BB00000786A640000000304E025AF4DB0487679
:100BC00048A939CDCC4C3D7800000078736E000008
:100BD00000030019267A4EEF46CB48D23E00008033
:100BE0003F7800000078737800000003005B267AED
:100BF0004EEF46CB48D33E0000000078000000785E
:100C0000737600000003009D26AF4DB0487648B1D2
:100C1000390000FA4378000000786C760000000389
:100C200000C426AF4DB0487648B5390000C84278B8
:100C3000000000786C620000000303EA26AF4DB0AC
:100C4000487648B9390000004078000000787A62A0
:100C500000000003030B27AF4DB0487648BD3900B4
:100C600000803F7900000079616D000000030007FB
:100C700025464DCC53E548C5390000803F7900003A
:100C80000079766D00000003002325AF4DB0487653
:100C900048CA3900001644790000007966720000E5
:100CA0000003004B25AF4DB0487648C6390000160A
:100CB000447900000079746D00000003007325AFD3
:100CC0004DB0487648CE390000484379000000799D
:100CD0006A6D00000003009525AF4DB0487648D2FC
:100CE0003920BCBE4C79000000796A68000000031E
:100CF00000BB25AF4DB0487648EE3920BCBE4C79DC
:100D0000000000796A640000000304E025AF4DB0E4
:100D1000487648D639CDCC4C3D7900000079736EC9
:100D2000000000030019267A4EEF46CB48D43E005F
:100D300000803F7900000079737800000003005BB9
:100D4000267A4EEF46CB48D53E00000000790000E1
:100D50000079737600000003009D26AF4DB0487601
:100D600048DE390000FA4379000000796C76000013
:100D7000000300C426AF4DB0487648E2390000C8F1
:100D80004279000000796C620000000303EA26AF9C
:100D90004DB0487648E639000000407900000079FF
:100DA0007A6200000003030B27AF4DB0487648EA93
:100DB000390000803F7A0000007A616D0000000376
:100DC000000725464DCC53E548F2390000803F7AB4
:100DD0000000007A766D00000003002325AF4DB0BF
:100DE000487648F7390000FA437A0000007A6672C4
:100DF00000000003004B25AF4DB0487648F33900A2
:100E000000FA437A0000007A746D0000000300735A
:100E100025AF4DB0487648FB39000096427A000075
:100E2000007A6A6D00000003009525AF4DB048764A
:100E300048FF3920BCBE4C7A0000007A6A68000086
:100E4000000300BB25AF4DB04876481B3A20BCBE1E
:100E50004C7A0000007A6A640000000304E025AFC9
:100E60004DB0487648033ACDCC4C3D7A0000007A2C
:100E7000736E000000030019267A4EEF46CB48D669
:100E80003E000000007A0000007A73780000000342
:100E9000005B267A4EEF46CB48D73E0000803F7A73
:100EA0000000007A737600000003009D26AF4DB06D
:100EB0004876480B3A0000C8437A0000007A6C7606
:100EC0000000000300C426AF4DB04876480F3A003A
:100ED00000C8427A0000007A6C620000000303EA56
:100EE00026AF4DB0487648133A000000407A000023
:100EF000007A7A6200000003030B27AF4DB04876FA
:100F000048173A0000803F6100000061616D0000F9
:100F10000003000725464DCC53E5481F3A0000006A
:100F2000406100000061766D000000030023252170
:100F30004E3347BB46243A00A00C486100000061D4
:100F4000667200000003004B25214E3347BB46204C
:100F50003A00A00C486100000061746D00000003BD
:100F6000007325214E3347BB46283A000080BF61FD
:100F7000000000616A6D00000003009525214E33DA
:100F800047BB462C3AF902155061000000616A68BF
:100F90000000000300BB25AF4DB0487648483AF941
:100FA00002155061000000616A640000000304E063
:100FB00025214E3347BB46303ACDCC4C3D61000035
:100FC0000061726100000003032B27214E3347BBF1
:100FD00046343A0000803F6100000061736E0000FB
:100FE00000030019267A4EEF46CB48D83E00008019
:100FF0003F6100000061737800000003005B267A07
:101000004EEF46CB48D93E00000000610000006171
:10101000737600000003009D26214E3347BB4638FF
:101020003A00A08C4761000000616C76000000036C
:1010300000C426214E3347BB463C3A0000B443610E
:10104000000000616C620000000303EA26214E33B9
:1010500047BB46403A0000A04061000000617A6250
:1010600000000003030B27214E3347BB46443A00E0
:101070000000406200000062616D00000003000794
:1010800025464DCC53E5484C3A0000004062000034
:101090000062766D00000003002325214E3347BB1C
:1010A00046513A00A00C48620000006266720000DF
:1010B0000003004B25214E3347BB464D3A00A00CA0
:1010C000486200000062746D000000030073252177
:1010D0004E3347BB46553A000080BF6200000062B5
:1010E0006A6D00000003009525214E3347BB465929
:1010F0003AF902155062000000626A6400000003C1
:1011000000E025214E3347BB465D3ACDCC4C3D62D5
:1011100000000062726100000003032B27214E33A0
:1011200047BB46613A0000803F6300000063616D89
:1011300000000003000725464DCC53E548793A00EE
:101140000000406300000063766D00000003002390
:1011500025214E3347BB467E3A00A00C4863000071
:101160000063667200000003004B25214E3347BB2D
:10117000467A3A00A00C486300000063746D0000DA
:101180000003007325214E3347BB46823A0000809E
:10119000BF63000000636A6D000000030095252115
:1011A0004E3347BB46863AF9021550630000006390
:1011B0006A640000000300E025214E3347BB468AE5
:1011C0003ACDCC4C3D630000006372610000000327
:1011D000032B27214E3347BB468E3A0000803F70D9
:1011E00031000070316672710003004B274B5033A1
:1011F00047BB46A63A0000C8427031000070316318
:10120000736C0003006E274B503347BB46AA3A006D
:10121000007A4470310000703163736800030092FB
:10122000274B503347BB46AE3A0000FA44703100BA
:1012300000703163706C000303B6274B503347BB1B
:1012400046B23A0000003E703100007031637068B1
:10125000000303DD274B503347BB46B63ACDCC4C99
:101260003E70310000703177736C00030004284B2E
:10127000503347BB46BA3A00007A447031000070E0
:101280003177736800030028284B503347BB46BEB4
:101290003A0000FA4470310000703177706C00033E
:1012A000034C284B503347BB46C23A0000003E7007
:1012B000310000703177706800030373284B50339E
:1012C00047BB46C63ACDCC4C3E7031000070317001
:1012D0006F660003039A28F84C3347BB46CA3ACDE1
:1012E000CCCC3D673534006735347800000303C14A
:1012F000287D4CB0487648C8380000000067353477
:10130000006735347900000303C1287D4CB048766E
:1013100048CC3800000000673534006735347A0067
:10132000000303C1287D4CB0487648D03800000047
:1013300000673534006735346100000303C128219C
:101340004CB0487648D43800000000673534006758
:1013500035346200000303C128214CB0487648D8D8
:10136000380000000067353400673534630000033F
:1013700003C128214CB0487648DC380000000067E3
:101380003535006735357800000303C1287D4CB042
:10139000487648E03800000000673535006735358D
:1013A0007900000303C1287D4CB0487648E438003A
:1013B000000000673535006735357A00000303C14A
:1013C000287D4CB0487648E8380000000067353585
:1013D000006735356100000303C128214CB0487611
:1013E00048EC38000000006735350067353562008D
:1013F000000303C128214CB0487648F038000000B3
:1014000000673535006735356300000303C12821C7
:101410004CB0487648F43800000000673536006765
:1014200035367800000303C1287D4CB0487648F873
:101430003800000000673536006735367900000354
:1014400003C1287D4CB0487648FC38000000006796
:101450003536006735367A00000303C1287D4CB06D
:101460004876480039000000006735360067353699
:101470006100000303C128214CB0487648043900BC
:10148000000000673536006735366200000303C18F
:1014900028214CB0487648083900000000673536EE
:1014A000006735366300000303C128214CB048763D
:1014B000480C390000000067353700673537780081
:1014C000000303C1287D4CB0487648103900000065
:1014D00000673537006735377900000303C1287D81
:1014E0004CB0487648143900000000673537006773
:1014F00035377A00000303C1287D4CB04876481880
:101500003900000000673537006735376100000398
:1015100003C128214CB04876481C39000000006700
:101520003537006735376200000303C128214CB00E
:1015300048764820390000000067353700673537A6
:101540006300000303C128214CB0487648243900C9
:10155000000000673538006735387800000303C1A4
:10156000287D4CB04876482839000000006735389F
:10157000006735387900000303C1287D4CB04876F8
:10158000482C3900000000673538006735387A008C
:10159000000303C1287D4CB0487648303900000074
:1015A00000673538006735386100000303C1282122
:1015B0004CB0487648343900000000673538006781
:1015C00035386200000303C128214CB04876483802
:1015D00039000000006735380067353863000003C4
:1015E00003C128214CB04876483C39000000006710
:1015F0003539006735397800000303C1287D4CB0C8
:1016000048764840390000000067353900673539B1
:101610007900000303C1287D4CB048764844390066
:10162000000000673539006735397A00000303C1CF
:10163000287D4CB0487648483900000000673539AD
:10164000006735396100000303C128214CB048769A
:10165000484C3900000000673539006735396200B1
:10166000000303C128214CB04876485039000000DF
:1016700000673539006735396300000303C128214D
:101680004CB0487648543900000000673932006792
:1016900039327800000103C1287D4CB04840465BD8
:1016A00022000000006739320067393279000001FA
:1016B00003C1287D4CB04840465F2200000000670F
:1016C0003932006739327A00000103C1287D4CB0FD
:1016D0004840466322000000006739320067393213
:1016E0006100000103C128214C33474046672200B6
:1016F000000000673932006739326200000103C11F
:1017000028214C334740466B2200000000673932E5
:10171000006739326300000103C128214C33474080
:10172000466F2200000000673238006732387800C8
:10173000000103DE287D4CB0484046A32200000093
:1017400000673238006732387900000103DE287DF7
:101750004CB0484046A722000000006732380067BE
:1017600032387A00000103DE287D4CB0484046AB99
:101770002200000000673238006732386100000143
:1017800003DE28214C33474046AF220000000067AB
:101790003238006732386200000103DE28214C3302
:1017A000474046B3220000000067323800673238F5
:1017B0006300000103DE28214C33474046B7220076
:1017C000000000673330006733307800000103DE2B
:1017D000287D4CB0484046BB2200000000673330F3
:1017E000006733307900000103DE287D4CB04840AB
:1017F00046BF2200000000673330006733307A00B4
:10180000000103DE287D4CB0484046C322000000A2
:1018100000673330006733306100000103DE2821A8
:101820004C33474046C72200000000673330006752
:1018300033306200000103DE28214C33474046CBA1
:10184000220000000067333000673330630000017E
:1018500003DE28214C33474046CF220000000073AE
:101860007973006A61000000000700FD28574FB03F
:1018700048764801380050C3477379730063740099
:1018800000000007042129574FB0487648F9376F08
:1018900012833A73797300737400000000070042EA
:1018A00029D84BEF46CB48CF3E0000000073797338
:1018B00000656A0000000007006529D84BEF466606
:1018C000460A3800000000737973006A7600000051
:1018D0000007009129D84BEF46C44512380000801C
:1018E00040737973007476000000000700E829D87F
:1018F0004BEF46664613380000803F7379730071E2
:1019000076000000000700172AD84BEF467D460FEF
:101910003800000000737973007376000000000740
:1019200000552AD84BEF467D461B380000803F7398
:101930007973007369000000000700942A4B50116E
:10194000479B451C380000C84273797300696300E7
:101950000000000700B42AD84BEF4621480B38009E
:10196000000000737973006563000000000700E663
:101970002AD84BEF46F2470C380000000073797309
:10198000006565000000000700152BD84BEF46C32B
:10199000470D38000000007379730065780000007F
:1019A000000700392BD84BEF4694470E38000080D3
:1019B0003F737973006261756400000400612BD885
:1019C0004BEF46C75514380000A040737973006789
:1019D000706C0000000700AE2BD84BEF467D46062A
:1019E00038000000007379730067756E000000070F
:1019F00000E12BD84BEF46664607380000803F7366
:101A000079730067636F0000000700122CD84BEF5A
:101A100046424605380000803F7379730067706165
:101A20000000000700472CD84BEF467D46083800E1
:101A3000000040737973006764690000000700824A
:101A40002CD84BEF46664609380000000000000025
:101A5000006763000000000000FE236247465363F6
:101A6000476C3400000000000000006D74000000AE
:101A7000000300B62C574F3347BB46FD3700409C50
:101A800045000000006D6C000000000304D92C57D5
:101A90004FB0487648F1370AD7A33D000000006DEB
:101AA00061000000000304F92C574FB0487648F558
:101AB00037CDCCCC3D0000000071726800000003FF
:101AC00000182DD84BEF46424610380000A04100C8
:101AD00000000071726C0000000300182DD84BEF5D
:101AE000464246113800000040737973006E6574F9
:101AF0000000000300182DD84BEF4642467F34000B
:101B000000803F000000007365303000000200FEDE
:101B1000236247114794462038000000000000006F
:101B2000007365303100000200FE236247114794C4
:101B300046223800000000000000007365303200CB
:101B4000000200FE2362471147944624380000003B
:101B500000000000007365303300000200FE2362C5
:101B6000471147944626380000000000000000732B
:101B700065303400000200FE236247114794462876
:101B800038000000000000000073653035000002DE
:101B900000FE236247114794462A380000000000E7
:101BA0000000007365303600000200FE236247111A
:101BB0004794462C38000000000000000073653098
:101BC0003700000200FE236247114794462E38007A
:101BD000000000000000007365303800000200FEC5
:101BE000236247114794463038000000000000008F
:101BF000007365303900000200FE236247114794EC
:101C000046323800000000000000007365313000EB
:101C1000000200FE2362471147944634380000005A
:101C200000000000007365313100000200FE2362F5
:101C3000471147944636380000000000000000734A
:101C400065313200000200FE236247114794463896
:101C5000380000000000000000736531330000020E
:101C600000FE236247114794463A38000000000006
:101C70000000007365313400000200FE236247114A
:101C80004794463C380000000000000000736531B6
:101C90003500000200FE236247114794463E38009B
:101CA000000000000000007365313600000200FEF5
:101CB00023624711479446403800000000000000AE
:101CC000007365313700000200FE2362471147941C
:101CD0004642380000000000000000736531380003
:101CE000000200FE2362471147944644380000007A
:101CF00000000000007365313900000200FE23621D
:101D00004711479446463800000000000000007369
:101D100065323000000200FE2362471147944648B6
:101D2000380000000000000000736532310000023E
:101D300000FE236247114794464A38000000000025
:101D40000000007365323200000200FE236247117A
:101D50004794464C380000000000000000736532D4
:101D60003300000200FE236247114794464E3800BC
:101D7000000000000000007379730000000000FE06
:101D8000236247845295506C34000000000000002C
:101D9000007031000000000000FE2362478452956D
:101DA000506C340000000000000000310000000012
:101DB000000000FE236247845295506C34000000FE
:101DC00000000000003200000000000000FE23625E
:101DD00047845295506C340000000000000000332E
:101DE00000000000000000FE236247845295506C02
:101DF000340000000000000000340000000000007B
:101E000000FE236247845295506C340000000000AD
:101E10000000007800000000000000FE23624784FC
:101E20005295506C34000000000000000079000062
:101E30000000000000FE236247845295506C34007D
:101E4000000000000000007A00000000000000FE1A
:101E5000236247845295506C34000000000000005B
:101E6000006100000000000000FE236247845295DC
:101E7000506C340000000000000000620000000010
:101E8000000000FE236247845295506C340000002D
:101E900000000000006300000000000000FE23625C
:101EA00047845295506C3400000000000000006729
:101EB00035340000000000FE236247845295506CC8
:101EC000340000000000000000673535000000000D
:101ED00000FE236247845295506C340000000000DD
:101EE0000000006735360000000000FE23624784D2
:101EF0005295506C34000000000000000067353738
:101F00000000000000FE236247845295506C3400AC
:101F1000000000000000006735380000000000FEEF
:101F2000236247845295506C34000000000000008A
:101F3000006735390000000000FE23624784529597
:101F4000506C3400000000000000006739320000CF
:101F5000000000FE236247845295506C340000005C
:101F600000000000006732380000000000FE23621D
:101F700047845295506C3400000000000000006758
:101F800033300000000000FE236247845295506CFD
:101F90003400000000000000006D706F00000000C1
:101FA00000FE236247845295506C3400000000000C
:101FB000000000706F730000000000FE2362478481
:101FC0005295506C3400000000000000006F6673F2
:101FD0000000000000FE236247845295506C3400DC
:101FE00000000000000000686F6D0000000000FEAF
:101FF000236247845295506C3400000000000000BA
:10200000006D00000000000000FE236247365940CA
:10201000466C340000000000000000710000000069
:10202000000000FE236247DE5840466C340000008A
:1020300000000000006F00000000000000FE2362AE
:1020400047685840466C340000000000000000243F
:1020500000000000000000FE2362477A5940466CF1
:1020600034000000001C2D1E2D232D292D2F2D3571
:102070002D3C2D2A2A2A204E4F54494345202A2AF6
:102080002A205265737474696E67206261756420DA
:102090007261746520746F202553002A2A2A205704
:1020A00041524E494E47202A2A2A20496C6C6567C6
:1020B000616C206261756420726174652073706563
:1020C00063696669656400432D472D4B2D502D5B78
:1020D0002D662D722D2A2A2A205741524E494E47ED
:1020E000202A2A2A2053657474696E67206E6F6EE9
:1020F0002D7374616E64617264206D6963726F73B5
:102100007465702076616C7565007B2D852D8B2D37
:10211000BC2DD42DF12D112E112E272E3D2E4C2EFF
:102120005B2E6A2E872E992EB22ED32EFA2E1A2FC0
:10213000342F4E2F682F822F9C2FB62FC82FDE2FC3
:10214000E22FE72FEC2FF22FF72FFC2F0030053076
:102150000930113018301E302B30313037303C30E0
:1021600040304D3053305C306130653069306E3016
:1021700074307A3081302C000A0025733A257300C0
:1021800025733A25312E30660025733A25312E33DA
:1021900066002C000A0025730025312E30660025CC
:1021A000312E3366005B66625D20206669726D7752
:1021B000617265206275696C642531382E32660A59
:1021C000005B66765D20206669726D7761726520BE
:1021D00076657273696F6E2531362E32660A005B42
:1021E00068765D202068617264776172652076652B
:1021F0007273696F6E2531362E32660A005B696430
:102200005D202054696E7947204944253330730A94
:10221000004C696E65206E756D6265723A253130CD
:102220002E30660A004665656420726174653A2541
:1022300031362E336625532F6D696E0A004D61636A
:1022400068696E652073746174653A2020202020CF
:10225000202025730A00526177206D616368696EE2
:10226000652073746174653A20202025730A004349
:1022700079636C652073746174653A202020202096
:102280002020202025730A004D6F74696F6E207323
:10229000746174653A202020202020202025730AB4
:1022A0000046656564686F6C642073746174653A98
:1022B00020202020202025730A0056656C6F63695A
:1022C00074793A2531372E336625532F6D696E0A9E
:1022D00000556E6974733A20202020202020202091
:1022E00020202020202025730A00436F6F7264692C
:1022F0006E6174652073797374656D3A20202025B2
:10230000730A004D6F74696F6E206D6F64653A20BB
:10231000202020202020202025730A00506C616E90
:10232000653A20202020202020202020202020204E
:102330002025730A0050617468204D6F64653A204F
:102340002020202020202020202025730A004469FE
:102350007374616E6365206D6F64653A2020202080
:1023600020202025730A004665656420726174652B
:10237000206D6F64653A20202020202025730A00FC
:102380002563206D616368696E6520706F736E3AB6
:102390002531312E336625530A00256320706F7373
:1023A0006974696F6E3A2531352E336625530A00FC
:1023B000256320776F726B206F66667365743A25AC
:1023C00031322E336625530A004D616368696E65AC
:1023D00020686F6D696E6720737461743A2025738D
:1023E0000A002563206178697320686F6D696E67E4
:1023F0002073746174653A25322E30660A000071CC
:10240000723A25640A0072783A25640A0025730A34
:10241000005B257325735D206D2573206D61702031
:10242000746F206178697325313564205B303D58C5
:102430002C313D592C323D5A2E2E2E5D0A005B2543
:102440007325735D206D2573207374657020616E34
:10245000676C652532302E336625530A005B257381
:1024600025735D206D25732074726176656C207014
:102470006572207265766F6C7574696F6E25392E82
:10248000336625530A005B257325735D206D257324
:10249000206D6963726F73746570732531366420C3
:1024A0005B312C322C342C385D0A005B257325738C
:1024B0005D206D257320706F6C61726974792531B0
:1024C0003864205B303D6E6F726D616C2C313D72F3
:1024D0006576657273655D0A005B257325735D2003
:1024E0006D257320706F776572206D616E61676511
:1024F0006D656E7425313064205B303D6F66662CEF
:10250000313D6F6E5D0A005B257325735D20257379
:102510002061786973206D6F6465253138642025EA
:10252000530A005B257325735D2025732076656C47
:102530006F63697479206D6178696D756D253135CA
:102540002E336625532F6D696E0A005B2573257344
:102550005D202573206665656472617465206D6118
:1025600078696D756D2531352E336625532F6D696C
:102570006E0A005B257325735D20257320747261DC
:1025800076656C206D6178696D756D2531372E33F8
:102590006625530A005B257325735D202573206A29
:1025A00065726B206D6178696D756D2531352E30E2
:1025B0006625532F6D696E5E330A005B25732573A4
:1025C0005D202573206A65726B20686F6D696E6788
:1025D0002531362E306625532F6D696E5E330A0025
:1025E0005B257325735D202573206A756E6374699E
:1025F0006F6E20646576696174696F6E2531342E63
:102600003466255320286C617267657220697320D7
:10261000666173746572290A005B257325735D20FA
:10262000257320737769746368206D696E2531376F
:1026300064205B303D6F66662C313D686F6D696E5E
:10264000672C323D6C696D69742C333D6C696D6922
:10265000742B686F6D696E675D0A005B2573257367
:102660005D20257320737769746368206D61782518
:10267000313764205B303D6F66662C313D686F6D8D
:10268000696E672C323D6C696D69742C333D6C69E1
:102690006D69742B686F6D696E675D0A005B2573E9
:1026A00025735D20257320736561726368207665EC
:1026B0006C6F636974792531362E336625532F6D1F
:1026C000696E0A005B257325735D202573206C619C
:1026D0007463682076656C6F636974792531372E71
:1026E000336625532F6D696E0A005B257325735D74
:1026F000202573206C61746368206261636B6F6670
:10270000662531382E336625530A005B2573257301
:102710005D202573207A65726F206261636B6F663E
:10272000662531392E336625530A005B25732573E0
:102730005D202573207261646975732076616C7504
:10274000652532302E346625530A005B703166727F
:10275000715D2070776D206672657175656E637945
:102760002020202531352E336620487A0A005B7000
:102770003163736C5D2070776D20637720737065B3
:102780006564206C6F202531352E33662052504D04
:102790000A005B70316373685D2070776D2063772A
:1027A000207370656564206869202531352E336695
:1027B0002052504D0A005B703163706C5D20707761
:1027C0006D206377207068617365206C6F20253100
:1027D000352E3366205B302E2E315D0A005B703162
:1027E0006370685D2070776D206377207068617317
:1027F00065206869202531352E3366205B302E2E0A
:10280000315D0A005B703177736C5D2070776D20ED
:10281000636377207370656564206C6F2531352E96
:1028200033662052504D0A005B70317773685D202B
:1028300070776D20636377207370656564206869C5
:102840002531352E33662052504D0A005B703177AA
:10285000706C5D2070776D206363772070686173A2
:1028600065206C6F2531352E3366205B302E2E317E
:102870005D0A005B70317770685D2070776D206352
:1028800063772070686173652068692531352E3360
:1028900066205B302E2E315D0A005B7031706F66F2
:1028A0005D2070776D207068617365206F666620AB
:1028B00020202531352E3366205B302E2E315D0AE7
:1028C000005B257325735D202573202573206F66BB
:1028D000667365742532302E336625530A005B25F6
:1028E0007325735D202573202573206C6F636174DD
:1028F000696F6E2531382E336625530A005B6A6195
:102900005D20206A756E6374696F6E206163636514
:102910006C65726174696F6E25382E306625530AB6
:10292000005B63745D202063686F7264616C207467
:102930006F6C6572616E63652531362E3366255383
:102940000A005B73745D2020737769746368207478
:1029500079706525313864205B303D4E4F2C313D18
:102960004E435D0A005B656A5D2020656E61626CA6
:1029700065206A736F6E206D6F6465253133642046
:102980005B303D746578742C313D4A534F4E5D0A7F
:10299000005B6A765D20206A736F6E2076657262D6
:1029A0006F7369747925313564205B303D73696CD0
:1029B000656E742C313D666F6F7465722C323D6D9F
:1029C000657373616765732C333D636F6E6669670A
:1029D000732C343D6C696E656E756D2C353D766576
:1029E00072626F73655D0A005B74765D20207465AA
:1029F000787420766572626F7369747925313564F5
:102A0000205B303D73696C656E742C313D76657268
:102A1000626F73655D0A005B71765D20207175657C
:102A20007565207265706F727420766572626F735F
:102A3000697479253764205B303D6F66662C313DC3
:102A400066696C74657265642C323D766572626F7E
:102A500073655D0A005B73765D2020737461747525
:102A600073207265706F727420766572626F73691D
:102A70007479253664205B303D6F66662C313D6687
:102A8000696C74657265642C323D766572626F7331
:102A9000655D0A005B73695D2020737461747573F2
:102AA00020696E74657276616C2531342E30662033
:102AB0006D730A005B69635D202069676E6F7265E4
:102AC000204352206F72204C46206F6E20525825B2
:102AD0003864205B303D6F66662C313D43522C32AA
:102AE0003D4C465D0A005B65635D20206578706142
:102AF0006E64204C4620746F2043524C46206F6E0B
:102B0000205458253664205B303D6F66662C313D7D
:102B10006F6E5D0A005B65655D2020656E61626CAD
:102B200065206563686F25313864205B303D6F66D2
:102B3000662C313D6F6E5D0A005B65785D20206517
:102B40006E61626C6520786F6E20786F66662531E5
:102B50003464205B303D6F66662C313D6F6E5D0ADC
:102B6000005B626175645D2055534220626175644B
:102B7000207261746525313564205B313D39363012
:102B8000302C323D31393230302C333D3338343013
:102B9000302C343D35373630302C353D31313532FF
:102BA00030302C363D3233303430305D0A005B67D4
:102BB000706C5D2064656661756C742067636F641A
:102BC0006520706C616E6525313064205B303D4757
:102BD00031372C313D4731382C323D4731395D0A90
:102BE000005B67756E5D2064656661756C74206757
:102BF000636F646520756E697473206D6F646525FD
:102C00003564205B303D4732302C313D4732315DF9
:102C10000A005B67636F5D2064656661756C742094
:102C200067636F646520636F6F7264207379737478
:102C3000656D253364205B312D3620284735342DD2
:102C4000473539295D0A005B6770615D2064656600
:102C500061756C742067636F6465207061746820AF
:102C6000636F6E74726F6C253364205B303D473642
:102C7000312C313D4736312E312C323D4736345DD3
:102C80000A005B6764695D2064656661756C742029
:102C900067636F64652064697374616E6365206D3A
:102CA0006F6465253264205B303D4739302C313DFF
:102CB0004739315D0A005B6D745D20206D696E20BF
:102CC0007365676D656E742074696D652531332E8B
:102CD000306620755365630A005B6D6C5D20206D66
:102CE000696E206C696E65207365676D656E74250D
:102CF00031372E336625530A005B6D615D20206DF0
:102D0000696E20617263207365676D656E7425312D
:102D1000382E336625530A0025640A003000393600
:102D20003030003139323030003338343030003513
:102D300037363030003131353230300032333034D4
:102D400030300020696E00206D6D002064656700E2
:102D50005B64697361626C65645D005B7374616E72
:102D6000646172645D005B696E6869626974656460
:102D70005D005B7261646975735D004E6F7420481D
:102D80006F6D656400486F6D656400473934202DB0
:102D900020756E6974732D7065722D6D696E757412
:102DA00065206D6F64652028692E652E2066656537
:102DB0006472617465206D6F646529004739332042
:102DC0002D20696E76657273652074696D65206D5E
:102DD0006F646500473930202D206162736F6C7518
:102DE00074652064697374616E6365206D6F6465DA
:102DF00000473931202D20696E6372656D656E74F0
:102E0000616C2064697374616E6365206D6F6465C5
:102E100000473631202D2065786163742073746F0C
:102E200070206D6F646500473634202D20636F6E0F
:102E300074696E756F7573206D6F64650047313707
:102E4000202D20585920706C616E65004731382064
:102E50002D20585A20706C616E6500473139202D45
:102E600020595A20706C616E6500473020202D205B
:102E70006C696E656172207472617665727365202B
:102E8000287365656B2900473120202D206C696E01
:102E9000656172206665656400473220202D2063DD
:102EA0006C6F636B7769736520617263206665651B
:102EB0006400473320202D20636F756E7465722087
:102EC000636C6F636B7769736520617263206665FD
:102ED000656400473830202D2063616E63656C2087
:102EE0006D6F74696F6E206D6F646520286E6F6EF4
:102EF00065206163746976652900473533202D208C
:102F00006D616368696E6520636F6F7264696E617D
:102F100074652073797374656D00473534202D20F6
:102F2000636F6F7264696E61746520737973746521
:102F30006D203100473535202D20636F6F72646935
:102F40006E6174652073797374656D203200473546
:102F500036202D20636F6F7264696E617465207313
:102F6000797374656D203300473537202D20636FEA
:102F70006F7264696E6174652073797374656D2016
:102F80003400473538202D20636F6F7264696E619D
:102F900074652073797374656D2035004735392069
:102FA0002D20636F6F7264696E617465207379732D
:102FB00074656D203600473230202D20696E6368BD
:102FC0006573206D6F646500473231202D206D6977
:102FD0006C6C696D65746572206D6F6465004F6619
:102FE000660053796E6300506C616E0044656365E2
:102FF0006C00486F6C640053746F700052756E0003
:10300000486F6C64004F6666005374617274656447
:1030100000486F6D696E670050726F626500496E9F
:10302000697469616C697A696E6700526573657469
:10303000004379636C650053746F7000456E6400E3
:10304000496E697469616C697A696E67005265617D
:1030500064790053687574646F776E0053746F7091
:1030600000456E640052756E00486F6C64005072CB
:103070006F6265004379636C6500486F6D696E67C8
:10308000004A6F67006D6D00696E63680074696E59
:103090007967205B25535D206F6B3E200074696E5D
:1030A0007967205B25535D206572723A2025733A5B
:1030B0002025732000456E64206F6620636F6D6D60
:1030C000616E642066696C650A004C314E31503186
:1030D00052312A2A2A205741524E494E47202A2A45
:1030E0002A20486F6D696E67206572726F723A2090
:1030F000255320617869732073657474696E6773F2
:1031000020696E636F7272656374002A2A2A2057E1
:1031100041524E494E47202A2A2A20486F6D696E37
:1031200067206572726F723A2053706563696669D1
:1031300065642061786973286573292063616E6E08
:103140006F7420626520686F6D65640058005900D7
:103150005A004100456E7465722024626F6F743DA1
:103160003120746F20656E7465722074686520620A
:103170006F6F74206C6F616465722E0A000A0A0A10
:10318000232323232054696E794720424F4F542034
:103190004C4F414445522048656C70202323232323
:1031A0000A000A466F722064657461696C65642068
:1031B00054696E794720696E666F207365653A20A1
:1031C00068747470733A2F2F6769746875622E6320
:1031D0006F6D2F73796E746865746F732F54696E99
:1031E00079472F77696B692F0A466F72207468657B
:1031F000206C6174657374206669726D77617265A5
:10320000207365653A2068747470733A2F2F67696C
:10321000746875622E636F6D2F73796E7468657450
:103220006F732F54696E79470A506C65617365201E
:103230006C6F6720616E79206973737565732061A7
:103240007420687474703A2F2F7777772E73796EA5
:10325000746865746F732E636F6D2F666F72756D12
:10326000730A486176652066756E0A00456E74655E
:1032700072202464656661756C74733D3120746FCF
:103280002072657365742074686520737973746542
:103290006D20746F2074686520666163746F727945
:1032A0002064656661756C742076616C7565732E3B
:1032B0000A546869732077696C6C206F7665727741
:1032C0007269746520616E79206368616E676573E9
:1032D00020796F752068617665206D6164652E0ABE
:1032E000000A0A0A232323232054696E79472052B7
:1032F0004553544F52452044454641554C54532064
:1033000048656C7020232323230A00496E766F6B77
:10331000652073656C66207465737420627920651E
:103320006E746572696E672024746573743D4E20F7
:103330007768657265204E206973206F6E65206F17
:10334000663A0A202024746573743D312020686F2A
:103350006D696E67207465737420202028796F75FD
:10336000206D757374207472697020686F6D696E5A
:1033700067207377697463686573290A2020247451
:103380006573743D322020736D6F6B6520746573B7
:10339000740A202024746573743D33202073717582
:1033A0006172652074657374202020286120736524
:1033B00072696573206F6620737175617265732918
:1033C0000A202024746573743D34202061726320C8
:1033D0007465737420202020202028736F6D652071
:1033E0006C6172676520636972636C6573290A207A
:1033F0002024746573743D3520206477656C6C20DF
:103400007465737420202020286D6F766573207397
:1034100070616365642062792031207365636F6E2B
:1034200064206477656C6C73290A202024746573AA
:10343000743D36202066656564686F6C6420746531
:1034400073742028656E746572202120616E64207B
:103450007E20746F20686F6C6420616E64207265DA
:1034600073746172742C207265737065637469760D
:10347000656C79290A202024746573743D372020F7
:103480004D20636F64657320746573742020284D2C
:1034900020636F64657320696E7465726D696E6711
:1034A0006C65642077697468206D6F766573290A8E
:1034B000202024746573743D3820204A534F4E20D9
:1034C000746573742020202020286D6F74696F6EDE
:1034D00020746573742072756E207573696E672031
:1034E0004A534F4E20636F6D6D616E6473290A20DD
:1034F0002024746573743D392020696E766572737B
:10350000652074696D6520746573740A20202474C5
:103510006573743D313020726F74617279206D6F04
:1035200074696F6E20746573740A20202474657347
:10353000743D313120736D616C6C206D6F766573F5
:1035400020746573740A202024746573743D3132CD
:1035500020736C6F77206D6F76657320746573745C
:103560000A202024746573743D313320636F6F72B9
:1035700064696E6174652073797374656D206F661C
:1035800066736574207465737420284739322C2063
:103590004735342D473539290A000A0A0A232323DF
:1035A000232054696E79472053454C462054455397
:1035B000542048656C7020232323230A004561634F
:1035C00068202420636F6D6D616E642061626F7688
:1035D0006520616C736F20646973706C617973200E
:1035E00074686520746F6B656E20666F722065610C
:1035F00063682073657474696E6720696E205B2050
:103600005D20627261636B6574730A546F20766922
:1036100065772073657474696E677320656E746571
:1036200072206120746F6B656E3A0A0A2020243C78
:10363000746F6B656E3E0A0A466F72206578616D25
:10364000706C65202479667220746F2064697370D1
:103650006C6179207468652059206D6178206665F9
:10366000656420726174650A0A546F207570646124
:1036700074652073657474696E677320656E746514
:103680007220746F6B656E20657175616C73207646
:10369000616C75653A0A0A2020243C746F6B656E74
:1036A0003E3D3C76616C75653E0A0A466F72206548
:1036B00078616D706C6520247966723D38303020F9
:1036C000746F20736574207468652059206D61786B
:1036D0002066656564207261746520746F203830DF
:1036E00030206D6D2F6D696E7574650A466F72209E
:1036F000636F6E66696775726174696F6E20646569
:103700007461696C73207365653A206874747073B2
:103710003A2F2F6769746875622E636F6D2F737906
:103720006E746865746F732F54696E79472F77696B
:103730006B692F54696E79472D436F6E66696775A3
:10374000726174696F6E0A00546865736520636FF7
:103750006D6D616E6473206172652061637469765A
:103760006520666F7220636F6E666967757261743B
:10377000696F6E3A0A2020247379732053686F773B
:103780002073797374656D202867656E6572616C4E
:10379000292073657474696E67730A2020243120B0
:1037A000202053686F77206D6F746F722031207303
:1037B000657474696E677320286F7220776861740E
:1037C00065766572206D6F746F7220796F752077E2
:1037D000616E7420312C322C332C34290A202024A1
:1037E0007820202053686F772058206178697320F3
:1037F00073657474696E677320286F7220776861CF
:103800007465766572206178697320796F752077A9
:10381000616E7420782C792C7A2C612C622C6329AF
:103820000A2020246D20202053686F7720616C6C63
:10383000206D6F746F722073657474696E67730A9C
:103840002020247120202053686F7720616C6C2029
:10385000617869732073657474696E67730A2020D8
:10386000246F20202053686F7720616C6C206F6676
:10387000667365742073657474696E67730A2020BB
:10388000242420202053686F7720616C6C2073659E
:103890007474696E67730A2020246820202053689E
:1038A0006F7720746869732068656C702073637229
:1038B00065656E0A0A000A0A0A2323232320546935
:1038C0006E794720434F4E46494755524154494F20
:1038D0004E2048656C7020232323230A000A4E6F74
:1038E00074653A2054696E79472067656E65726128
:1038F000746573206175746F6D617469632073748E
:1039000061747573207265706F72747320627920B0
:1039100064656661756C740A546869732063616ECE
:103920002062652064697361626C6564206279203D
:10393000656E746572696E67202473763D300A5334
:103940006565207468652077696B692062656C6FB6
:103950007720666F72206D6F72652064657461698F
:103960006C732E0A00546865736520636F6D6D611A
:103970006E64732061726520616374697665206688
:10398000726F6D2074686520636F6D6D616E642069
:103990006C696E653A0A205E782020202020202065
:1039A00020202020202052657365742028636F6ECC
:1039B00074726F6C207829202D20736F6674776184
:1039C00072652072657365740A20203F20202020D4
:1039D0002020202020202020204D616368696E6512
:1039E00020706F736974696F6E20616E6420676305
:1039F0006F6465206D6F64656C2073746174650A13
:103A000020202420202020202020202020202020B2
:103A100053686F7720616E642073657420636F6EE6
:103A200066696775726174696F6E20736574746915
:103A30006E67730A202021202020202020202020B3
:103A40002020202046656564686F6C64202D2073FB
:103A5000746F70206D6F74696F6E20776974686F12
:103A60007574206C6F73696E6720706F7369746909
:103A70006F6E0A20207E2020202020202020202061
:103A80002020204379636C65205374617274202D6B
:103A900020726573746172742066726F6D20666542
:103AA0006564686F6C640A20206820202020202034
:103AB0002020202020202053686F772074686973AD
:103AC0002068656C702073637265656E0A2020241F
:103AD0006820202020202020202020202053686FD4
:103AE0007720636F6E66696775726174696F6E20A7
:103AF00068656C702073637265656E0A202024749B
:103B00006573742020202020202020204C697374AD
:103B10002073656C662D74657374730A2020247499
:103B20006573743D4E2020202020202052756E2089
:103B300073656C662D74657374204E0A20202468AA
:103B40006F6D653D312020202020202052756E2091
:103B50006120686F6D696E67206379636C650A2008
:103B60002024646566613D312020202020202052E1
:103B70006573746F726520616C6C20736574746911
:103B80006E677320746F2022666163746F7279228E
:103B90002064656661756C74730A000A0A0A23233F
:103BA00023232054696E79472048656C70202323B5
:103BB00023230A00D43CD73CDD3CE43CE93CF23C06
:103BC000FD3C083D143D203D2E3D453D543D613DAD
:103BD0006D3D813D8E3DA33DA63DA93DAC3DBB3D28
:103BE000D03DE53DF43D043E163E2D3E3D3E4F3E6C
:103BF000523E553E583E5B3E5E3E613E643E673EF1
:103C00006A3E6D3E703E853E9D3EAF3EC83EDE3E06
:103C1000F43E0C3F243F363F543F693F7D3F803F99
:103C2000833F863F893F8C3F8F3F923F953FA63F22
:103C3000BA3FCC3FE13FF93F154029403D40584055
:103C400071720053595354454D2052454144590017
:103C50004C6F6164696E6720636F6E66696773207D
:103C600066726F6D20454550524F4D00496E697424
:103C700069616C697A696E6720636F6E66696773E4
:103C800020746F20506F636B657420434E43206C2B
:103C9000696E65617220617869732070726F666900
:103CA0006C65007B226572223A7B226662223A258D
:103CB000302E32662C227374223A25642C226D73C6
:103CC00067223A222573222C2276616C223A2564DF
:103CD0007D7D0A004F4B004572726F72004561672F
:103CE00061696E004E6F6F7000436F6D706C65742C
:103CF00065005465726D696E617465640048617237
:103D00006420726573657400456E64206F66206C74
:103D1000696E6500456E64206F662066696C65009B
:103D200046696C65206E6F74206F70656E004D6122
:103D3000782066696C652073697A652065786365AB
:103D400065646564004E6F207375636820646576F2
:103D50006963650042756666657220656D70747989
:103D6000004275666665722066756C6C0042756609
:103D70006665722066756C6C202D20666174616CBE
:103D800000496E697469616C697A696E6700456E95
:103D9000746572696E6720626F6F74206C6F616406
:103DA000657200313700313800313900496E746571
:103DB000726E616C206572726F7200496E7465720A
:103DC0006E616C2072616E6765206572726F720041
:103DD000466C6F6174696E6720706F696E742065E0
:103DE00072726F7200446976696465206279207A24
:103DF00065726F00496E76616C696420416464721B
:103E000065737300526561642D6F6E6C7920616417
:103E1000647265737300496E697469616C697A6173
:103E200074696F6E206661696C7572650053797391
:103E300074656D2073687574646F776E004D656D81
:103E40006F727920636F7272757074696F6E003271
:103E50003900333000333100333200333300333430
:103E60000033350033360033370033380033390040
:103E7000556E7265636F676E697A656420636F6DF6
:103E80006D616E6400457870656374656420636F6E
:103E90006D6D616E64206C6574746572004261645E
:103EA000206E756D62657220666F726D6174004977
:103EB0006E7075742065786365656473206D6178D4
:103EC000206C656E67746800496E70757420766149
:103ED0006C756520746F6F20736D616C6C00496E3A
:103EE0007075742076616C756520746F6F206C61DD
:103EF00072676500496E7075742076616C75652017
:103F000072616E6765206572726F7200496E7075BE
:103F1000742076616C756520756E737570706F7244
:103F2000746564004A534F4E2073796E7461782033
:103F30006572726F72004A534F4E20696E707574CD
:103F40002068617320746F6F206D616E79207061DD
:103F5000697273004A534F4E206F757470757420E8
:103F6000746F6F206C6F6E67004F7574206F6620E2
:103F70006275666665722073706163650035320034
:103F800035330035340035350035360035370035EA
:103F900038003539005A65726F206C656E67746839
:103FA000206D6F76650047636F646520626C6F6398
:103FB0006B20736B69707065640047636F64652084
:103FC000696E707574206572726F720047636F64FA
:103FD00065206665656472617465206572726F72D2
:103FE0000047636F6465206178697320776F72643E
:103FF000206D697373696E670047636F6465206D38
:104000006F64616C2067726F75702076696F6C6188
:1040100074696F6E00486F6D696E67206379636CB9
:1040200065206661696C6564004D61782074726119
:1040300076656C206578636565646564004D6178BC
:10404000207370696E646C652073706565642065AB
:1040500078636565646564004172632073706563AD
:10406000696669636174696F6E206572726F720050
:10407000284D53472A2A2A2A20486F6D696E6720E7
:1040800054657374205B76315D202A2A2A2A290A16
:104090006732382E32783079307A300A6D3330001A
:1040A000284D53472A2A2A2A20536D6F6B652054C6
:1040B000657374205B76315D202A2A2A2A290A47F3
:1040C00030302047313720473231204734302047C5
:1040D000343920473830204739300A6735350A6788
:1040E00030783079300A473030207832300A7830F2
:1040F0000A7932300A79300A7A2D32300A7A300A57
:104100006132300A61300A4730302078323020790D
:104110003230207A30206132300A47303020783017
:10412000207930207A302061300A473031206632E1
:1041300030302078370A79370A7A2D370A61330A06
:104140006735340A6730783079300A6D33300028AB
:104150004D53472A2A2A2A205371756172657320AC
:104160004D6F74696F6E2054657374205B76315D9A
:10417000202A2A2A2A290A673030673137673231E4
:104180006734306734396738306739300A67353516
:104190000A6730783079300A6730783230202874F6
:1041A0007261766572736520612032306D6D2073A7
:1041B000717561726520696E205820616E642059A6
:1041C000290A7932300A78300A79300A6731783131
:1041D00030663530302028647261772061203130BC
:1041E0006D6D2073717561726520696E2058206154
:1041F0006E6420592061742046353030290A7931A7
:10420000300A78300A79300A67307A2D3230202827
:10421000747261766572736520612032306D6D2035
:1042200073717561726520696E205820616E64201B
:104230005A290A7832300A7A300A78300A67317897
:1042400032307932307A2D3230663530302028667F
:1042500065656420612032306D6D20646961676F2F
:104260006E616C20696E20582C205920616E64208C
:104270005A290A783079307A300A783430793430F3
:104280007A2D34300A78343079307A300A783079BF
:1042900034307A2D34300A7834307934307A300A38
:1042A000783079307A2D34300A78307934307A3079
:1042B0000A78343079307A2D34300A783079307A8F
:1042C000300A6738300A6735340A67307830793019
:1042D0000A6D3330002F286D73672A2A2A2A20415D
:1042E00072632054657374205B76315D202A2A2A1C
:1042F0002A290A4E312067303067313767323167FB
:1043000034306734396738306739300A4E313020FD
:104310006730783079300A4E323020663530300AD6
:104320004E3330206732783130792D313069313079
:1043300020284357203237302064656772656573E3
:10434000290A4E3430206730783079300A4E3530C3
:10435000206733783130792D31306931302028436E
:1043600043572039302064656772656573290A4EAA
:104370003630206730783079300A4E383020673256
:104380007832307930693130202843572031383045
:104390002064656772656573290A4E37302067307F
:1043A000783079300A4E38302067337832307930BF
:1043B0006931302028434357203138302064656705
:1043C00072656573290A4E3930206730783079304C
:1043D0000A4E39392046313230300A4E31303020E1
:1043E00067327830793069323020284357203336AD
:1043F000302064656772656573290A4E313130205B
:10440000673278307930693230202843572033368C
:104410003020616761696E290A4E31313020673280
:1044200078307930693230202843572033363020B5
:10443000616761696E290A4E313130206732783008
:104440007930693230202843572033363020616775
:1044500061696E290A4E3131302067327830793007
:104460006932302028435720333630206167616934
:104470006E290A4E31313020673278307930693216
:1044800030202843572033363020616761696E2918
:104490000A4E31313020673278307930693230203D
:1044A0002843572033363020616761696E290A4EF0
:1044B000313230206637303020286D7367436861B1
:1044C0006E67652066656564207261746520776833
:1044D000696C6520696E204732206D6F74696F6E5C
:1044E000206D6F6465290A4E313330206732783091
:1044F00079306932302028435720333630203372E8
:10450000642074696D65290A4E3134302067327831
:104510003079306932302028435720333630203408
:1045200074682074696D65290A4E3135302066350E
:1045300030300A4E313630206733783079307A3473
:1045400030693230202843435720333630206465A9
:1045500067726565732077697468206C696E656140
:10456000722074726176656C290A4E31373020678B
:1045700033783079307A30693230202843435720FD
:1045800033363020616761696E290A4E3138302038
:104590006637303020286D73672A2A2A2A436861DB
:1045A0006E67652066656564207261746520776852
:1045B000696C6520696E204733206D6F74696F6E7A
:1045C000206D6F64652A2A2A2A290A4E3139302043
:1045D00067337830793069323020284343572033AD
:1045E0003630203372642074696D65290A4E32308A
:1045F0003020673378307930693230202843435790
:1046000020333630203474682074696D65290A4E71
:1046100032313020286D73672A2A2A2A4731382000
:104620004576616C20746573742A2A2A2A290A4EF9
:104630003232302047315833302E3730375A353008
:104640002E373237463530300A4E3233302047313C
:1046500038204730325836372E3733385A32332ED7
:10466000363137523235463235300A4E3234302008
:104670006738300A4E323530206730783079307AFA
:10468000300A4E323630206D333000284D53472AE1
:104690002A2A2A204477656C6C2054657374205B49
:1046A00076315D202A2A2A2A290A67303067313775
:1046B0006732316739300A6735350A6730783079C3
:1046C000300A663530300A67307831300A67347026
:1046D000310A67307832300A673470310A673078CF
:1046E00031300A673470310A67307830300A673405
:1046F00070310A79350A6735340A67307830793095
:104700000A6D333000284D53472A2A2A2A2046654D
:104710006564686F6C642054657374205B76315DEA
:10472000202A2A2A2A290A284D53472A2A2A2A20B7
:104730004D616E75616C6C7920656E7465722021B7
:1047400020616E64207E20647572696E67206D6FD3
:1047500076656D656E7420746F2074657374202A9D
:104760002A2A2A290A6735350A6730783079300ACB
:10477000673470330A6730306731376732316734F6
:10478000306734396738306739300A663630300A76
:104790006730783130307637362E3736350A783014
:1047A00079300A6735340A6730783079300A6D33EA
:1047B0003000284D53472A2A2A2A204D636F64650A
:1047C000732074657374205B76315D202A2A2A2A4F
:1047D000290A6735350A6730783079300A6D330A2F
:1047E000673470310A6D350A673470310A6D340AE6
:1047F000673470310A6D350A673470310A6D370AD3
:10480000673470310A6D390A673470310A6D380ABD
:10481000673470310A6D390A663530300A6730788E
:1048200032300A7932300A6D330A78300A6D340A30
:1048300079300A6D350A67317831300A6D370A7977
:1048400031300A6D380A78300A6D390A79300A67D2
:1048500032783130792D31306931300A6D330A6761
:1048600030783079300A6D340A6733783130792DF9
:1048700031306931300A6D350A6730783079300A65
:104880006D370A673278323079306931300A6D38E5
:104890000A6730783079300A6D390A6733783230F8
:1048A00079306931300A6730783079300A67327888
:1048B0003079306931300A67337830793069313096
:1048C0000A6735340A6730783079300A6D33300042
:1048D0007B226763223A2267303067313767323193
:1048E000673430673439673830673930227D0A7B66
:1048F000226763223A22673535227D0A7B2267636D
:10490000223A22673078307930227D0A7B22676331
:10491000223A2266353030227D0A7B226763223AB2
:1049200022284D53477371756172657329227D0A80
:104930007B226763223A226730783230227D0A7BFD
:10494000226763223A22793230227D0A7B22676312
:10495000223A227830227D0A7B226763223A22792A
:1049600030227D0A7B226763223A22673178313018
:10497000227D0A7B226763223A22793130227D0A26
:104980007B226763223A227830227D0A7B2267638A
:10499000223A227930227D0A7B226763223A22283A
:1049A0004D5347636972636C657329227D0A7B22CC
:1049B0006763223A226732783130792D313069319C
:1049C00030227D0A7B226763223A22673078307971
:1049D00030227D0A7B226763223A226733783130A6
:1049E000792D3130693130227D0A7B226763223A8A
:1049F00022673078307930227D0A7B226763223A41
:104A00002267327832307930693130227D0A7B2258
:104A10006763223A22673078307930227D0A7B2220
:104A20006763223A22673378323079306931302235
:104A30007D0A7B226763223A226730783079302200
:104A40007D0A7B226763223A2267327830793069A7
:104A50003130227D0A7B226763223A226733783025
:104A60007930693130227D0A7B226763223A2267DE
:104A70003534227D0A7B226763223A226730783000
:104A80007930227D0A7B226763223A226D333022FD
:104A90007D00284D53472A2A2A2A20496E766572BE
:104AA00073652054696D65204D6F74696F6E205475
:104AB000657374205B76315D202A2A2A2A290A67C9
:104AC00030306731376732316734306734396738AF
:104AD000306739300A6735350A6730783079300AFF
:104AE0006739330A66302E30310A67317831300A3F
:104AF0007931300A7A31300A6131300A78300A79F6
:104B0000300A7A300A61300A6731783130793130D1
:104B10007A2D31306131300A6730783079307A302F
:104B200061300A66302E310A6732783130792D31A2
:104B3000307A2D32306931300A6730783079307A06
:104B4000300A6733783130792D31307A2D3230693F
:104B500031300A6730783079307A300A673278320B
:104B60003079307A2D32306931300A6730783079D7
:104B7000307A300A673378323079306931300A67F9
:104B800030783079307A300A6732783079307A2D5F
:104B900033306931300A6733783079307A306931AF
:104BA000300A6730783079307A300A673278307975
:104BB000306932302028435720333630206465670F
:104BC00072656573290A673378307930693230202D
:104BD0002843435720333630206465677265657318
:104BE000290A6739340A6735340A673078307930F2
:104BF0000A6D333000284D53472A2A2A2A20526F43
:104C0000746172792041786973204D6F74696F6E99
:104C10002054657374205B76315D202A2A2A2A2964
:104C20000A6730306731376732316734306734397B
:104C30006738306739300A6730783079307A3061D8
:104C400030623063300A6735350A67307830793042
:104C50000A6633363030300A6730613336300A62E4
:104C60003336300A633336300A61300A62300A6301
:104C7000300A673161313434300A62313434300AF9
:104C800063313434300A61300A62300A63300A67B3
:104C900031613134343062373230633336300A7840
:104CA0003079307A306130623063300A673178367B
:104CB00030613134343062373230633336300A7821
:104CC0003079307A306130623063300A673178365B
:104CD00030793530613134343062373230633336D5
:104CE000300A783079307A306130623063300A6768
:104CF000317836307935307832356131343430625C
:104D0000373230633336300A783079307A30613078
:104D1000623063300A6735340A6730783079300A98
:104D20006D333000284D53472A2A2A2A20546573B0
:104D30007420766572792073686F7274206D6F7657
:104D40006573205B76315D202A2A2A2A290A24737A
:104D5000693D333030300A6735350A67307830794D
:104D6000300A673470302E350A673178302E31665C
:104D7000313030300A78300A78302E310A78300AF3
:104D800078302E310A78300A78302E310A78300A9D
:104D900078302E310A78300A78302E310A78300A8D
:104DA00078302E310A78300A78302E310A78300A7D
:104DB00078302E310A78300A78302E310A78300A6D
:104DC00078302E310A78300A78302E310A78300A5D
:104DD00078302E310A78300A78302E310A78300A4D
:104DE00078302E310A673470302E350A6735340A30
:104DF0006730783079300A6D333000284D53472AB8
:104E00002A2A2A2054657374206163637572616372
:104E100079206F6620736C6F77206D6F76657320D5
:104E20005B76315D202A2A2A2A290A6735350A67E6
:104E300030783079300A673470302E350A67347034
:104E4000302E350A67317831306632320A673534B0
:104E50000A6730783079300A6D333000284D534777
:104E60002A2A2A2A20436F6F7264696E6174652052
:104E70006F6666736574732074657374205B763136
:104E80005D202A2A2A2A290A67303067313767329B
:104E9000316734306734396738306739300A6735FD
:104EA000340A673932783079307A300A66363030F1
:104EB0000A284D53472A2A2A2A20746573742047EA
:104EC0003932206F6666736574732A2A2A2A290A82
:104ED000286D73675374657020313A204D6F766585
:104EE0002066726F6D20302C3020746F2033302C90
:104EF00030206D6D20696E20706F736974697665FE
:104F0000205820646972656374696F6E290A286D80
:104F100073675374657020323A205265736574204C
:104F20006F726967696E20746F20302E3020757340
:104F3000696E6720473932290A286D736753746593
:104F40007020333A204D6F766520746F2032302CFC
:104F5000302E2053686F756C64206D6F766520323B
:104F600030206D6D20696E20706F7369746976658D
:104F7000205820646972656374696F6E20616E6485
:104F800020737461747573207265706F727420730E
:104F9000686F756C642073746172742066726F6DD3
:104FA00020302C30290A286D7367537465702034C3
:104FB0003A204D6F766520746F20302E30202020EF
:104FC00053686F756C64206D6F7665203230206D8C
:104FD0006D20696E206E6567617469766520582062
:104FE000646972656374696F6E20616E64207374A6
:104FF00061747573207265706F72742073686F7559
:105000006C642073746172742066726F6D2032302C
:105010002C30290A67317833300A67393278300A00
:1050200067317832300A6731783079300A24737208
:105030000A67393278300A673470302E350A284DC5
:1050400053472A2A2A2A207465737420473535204D
:105050006F6666736574732A2A2A2A290A286D7373
:10506000675374657020313A2053657420436F6F25
:105070007264696E6174652073797374656D203232
:10508000205B6735355D20746F206F6666736574CD
:10509000206F662035302C3530290A286D73675310
:1050A00074657020323A2053656C6563742047350F
:1050B0003520636F6F7264696E61746520737973F4
:1050C00074656D290A286D73675374657020333ACF
:1050D000204D6F766520746F20302C302E2048656F
:1050E00061642073686F756C64206D6F76652064F1
:1050F0006961676F6E616C6C7920696E202B582036
:10510000616E64202B5920616E6420737461747524
:1051100073207265706F72742073686F756C642091
:1051200073746172742066726F6D20302C30290A9E
:105130006731304C3270327835307935300A673526
:10514000350A6730783079300A673470302E350A86
:10515000284D53472A2A2A2A20746573742047351C
:1051600033206162736F6C757465206F766572723F
:1051700069646573202A2A2A2A290A286D736753CD
:1051800074657020313A2052756E206120737175FC
:1051900061726520696E20473535207379737465B7
:1051A0006D290A286D73675374657020323A205256
:1051B000756E20612073717561726520772F473598
:1051C00033206F76657272696465290A67307830BA
:1051D00079300A673078323079300A673078323087
:1051E0007932300A673078307932300A6730783077
:1051F00079300A673470302E350A67353367307876
:105200003079300A673533673078323079300A6761
:10521000353367307832307932300A67353367306A
:1052200078307932300A6735336730783079300A30
:105230006730783079300A673470302E350A284D5F
:1052400053472A2A2A2A207465737420526574757C
:10525000726E20746F20686F6D65202A2A2A2A29B1
:105260000A286D73675374657020313A2052657453
:1052700075726E20746F20686F6D65207573696E2E
:105280006720473238290A286D7367537465702088
:10529000323A20526573657420746F20473534208C
:1052A000636F6F72642073797374656D290A673256
:1052B000380A6735340A6D3330004E3120473230BA
:1052C0000A4E3520473430204731370A4E313020DE
:1052D0005431204D30360A284E31352047393020A0
:1052E0004730205830205930205A30290A4E323069
:1052F000205335303030204D3033200A4E323520A7
:1053000058302E3036342059302E333236205A3031
:105310000A4E343020473031204631362E300A4E86
:1053200035302058302E3036342059302E33323636
:105330000A4E35352058302E3036302059302E3236
:1053400039330A4E36302058302E30373720593016
:105350002E3236370A4E36352058302E3131312034
:1053600059302E3235370A4E37302058302E3134EE
:10537000392059302E3235320A4E37352058302EEA
:105380003138382059302E3235350A4E38302058D1
:10539000302E3232372059302E3236380A4E3835D8
:1053A0002058302E3235372059302E3237310A4EC0
:1053B00039302058302E3333352059302E3236359F
:1053C0000A4E39352058302E3431322059302E32A1
:1053D00037310A4E3130302058302E34373420598E
:1053E000302E3238370A4E3130352058302E34398D
:1053F000312059302E3238390A4E31313020583070
:105400002E3531372059302E3237330A4E3131356F
:105410002058302E3534342059302E3236330A4E4F
:105420003132302058302E3538302059302E323637
:10543000310A4E3132352058302E35393520593029
:105440002E3236330A4E3133302058302E36323138
:105450002059302E3237340A4E3133352058302E11
:105460003635392059302E3330360A4E313430201B
:1054700058302E3637332059302E3333350A4E31DB
:1054800034352058302E3637392059302E333631C6
:105490000A4E3135302058302E3637382059302ECC
:1054A0003338390A4E3135352058302E36373020D2
:1054B00059302E3432300A4E3136302058302E36A4
:1054C00037302059302E3434360A4E313635205894
:1054D000302E3638302059302E3437340A4E31379A
:1054E000302058302E3730342059302E3439370A96
:1054F0004E3137352058302E3733322059302E3543
:1055000031350A4E3138302058302E373934205951
:10551000302E3533350A4E3138352058302E383755
:10552000322059302E3536370A4E31393020583036
:105530002E3935302059302E3630340A4E31393537
:105540002058312E3033312059302E3634370A4E20
:105550003230302058312E3134392059302E373204
:10556000320A4E3230352058312E333038205930FF
:105570002E3835340A4E3231302058312E34333003
:105580002059302E3938340A4E3231352058312ED8
:105590003434372059302E3938360A4E32323020E2
:1055A00058312E3632382059302E3832320A4E32A7
:1055B00032352058312E3733322059302E3731349E
:1055C0000A4E3233302058322E3030392059302EA6
:1055D0003338310A4E3233352058322E31313620AD
:1055E00059302E3236360A4E3234302058322E326E
:1055F00032382059302E3135370A4E323435205862
:10560000322E3238302059302E3132330A4E323574
:10561000302058322E3333322059302E3039340A6C
:105620004E3235352058322E3432332059302E3018
:1056300037300A4E3236302058322E34383920591D
:10564000302E3036350A4E3236352058322E35352A
:10565000372059302E3036360A4E32373020583205
:105660002E3632372059302E3038340A4E32373504
:105670002058322E3639332059302E3130390A4EE7
:105680003238302058322E3733302059302E3133D3
:10569000330A4E3238352058322E383035205930C2
:1056A0002E3139300A4E3239302058322E383239C4
:1056B0002059302E3231360A4E3239352058322EAA
:1056C0003838302059302E3239310A4E33303020BC
:1056D00058322E3838342059302E3330300A4E3379
:1056E00030352058322E3839382059302E33333265
:1056F0000A4E3331302058322E3930352059302E71
:105700003336370A4E3331352058322E3931302076
:1057100059302E3430370A4E3332302058322E3939
:1057200030382059302E3434360A4E333235205832
:10573000322E3930312059302E3439350A4E333338
:10574000302058322E3839372059302E3439350A26
:105750004E3333352058322E3839302059302E35DB
:1057600032340A4E3334302058322E3834322059F5
:10577000302E3630340A4E3334352058322E3831FC
:10578000342059302E3636350A4E333530205832D3
:105790002E3739342059302E3735300A4E333535CF
:1057A0002058322E3739312059302E3833380A4EAE
:1057B0003336302058322E3831392059302E39378F
:1057C000360A4E3336352058322E38333720593189
:1057D0002E3034340A4E3337302058322E38363299
:1057E0002059312E3131320A4E3337352058322E7E
:1057F0003837372059312E3134350A4E333830207E
:1058000058322E3931322059312E3231370A4E3347
:1058100038352058322E3931372059312E32323630
:105820000A4E3339302058322E3935312059312E35
:105830003238310A4E3339352058322E393730203C
:1058400059312E3239350A4E3430302058322E3903
:1058500039362059312E3239350A4E3430352058F8
:10586000332E3031332059312E3237350A4E343110
:10587000302058332E3032342059312E3235340A0C
:105880004E3431352058332E3037302059312E31B7
:1058900035310A4E3432302058332E3037372059C4
:1058A000312E3133340A4E3432352058332E3132D2
:1058B000352059312E3033390A4E343330205833A5
:1058C0002E3133382059312E3031390A4E343335A8
:1058D0002058332E3230352059302E3930380A4E88
:1058E0003434302058332E3238322059302E373964
:1058F000370A4E3434352058332E33363120593060
:105900002E3639310A4E3435302058332E34323663
:105910002059302E3539320A4E3435352058332E41
:105920003435362059302E3534330A4E3436302053
:1059300058332E3437392059302E3439330A4E3407
:1059400036352058332E3439342059302E343732FE
:105950000A4E3437302058332E3530352059302E0A
:105960003434360A4E3437352058332E353138200A
:1059700059302E3431370A4E3438302058332E35D2
:1059800033302059302E3339310A4E3438352058CF
:10599000332E3536342059302E3330300A4E3439D8
:1059A000302058332E3537372059302E3235330AD0
:1059B0004E3439352058332E3536382059302E3272
:1059C00031320A4E3530302058332E353434205998
:1059D000302E3137360A4E3530352058332E353497
:1059E000312059302E3134360A4E3531302058337B
:1059F0002E3535332059302E3131390A4E35313577
:105A00002058332E3537362059302E3130360A4E55
:105A10003532302058332E3539372059302E313039
:105A2000320A4E3532352058332E3631382059302F
:105A30002E3130390A4E3533302058332E36333933
:105A40002059302E3132390A4E3533352058332E15
:105A50003635302059302E3135390A4E3534302024
:105A600058332E3636332059302E3137380A4E35DA
:105A700034352058332E3637382059302E313932CC
:105A80000A4E3535302058332E3639392059302ECC
:105A90003139370A4E3535352058332E37323320D9
:105AA00059302E3139360A4E3536302058332E379C
:105AB00036342059302E3137390A4E353635205894
:105AC000332E3830352059302E3136350A4E3537A1
:105AD000302058332E3838342059302E3135390A99
