:100000000C94143A0C94353A0C94353A0C94353AD5
:100010000C94353A0C94353A0C94353A0C94353AA4
:100020000C94353A0C94353A0C94353A0C945A8920
:100030000C94353A0C94353A0C94AB840C94353AC4
:100040000C94353A0C94353A0C94353A0C94353A74
:100050000C94353A0C94353A0C94353A0C94353A64
:100060000C94353A0C94FB8C0C94928C0C94353A8D
:100070000C9484900C9424900C9462900C94353AD7
:100080000C9499890C94353A0C94353A0C94353A81
:100090000C94353A0C94353A0C94353A0C94353A24
:1000A0000C94353A0C94353A0C94353A0C94D3713F
:1000B0000C943B720C94353A0C94353A0C94818430
:1000C0000C94353A0C94353A0C94353A0C94353AF4
:1000D0000C94353A0C94353A0C94353A0C94353AE4
:1000E0000C94D8930C94353A0C94353A0C94353AD8
:1000F0000C94353A0C94353A0C94353A0C94353AC4
:100100000C94B9710C9421720C949F710C94077229
:100110000C94353A0C94353A0C94353A0C94353AA3
:100120000C94353A0C94353A0C94353A0C94353A93
:100130000C94353A0C9498870C94353A0C94353AD3
:100140000C94353A0C94353A0C94353A0C94353A73
:100150000C94353A0C94353A0C94CE930C94353A71
:100160000C94353A0C94353A0C94353A0C94353A53
:100170000C94353A0C94353A0C94353A0C94353A43
:100180000C94353A0C94353A0C94353A0C94353A33
:100190000C94353A0C94353A0C94353A0C94353A23
:1001A0000C94ED710C9455720C94353A0C94353ACC
:1001B0000C9450870C94353A0C94353A0C94353A9B
:1001C0000C94353A0C94353A0C94353A0C94353AF3
:1001D0000C94353A0C94353A0C94353A0C94353AE3
:1001E0000C94353A0C94353A686E796E8A6E2671A5
:1001F0002671026E236C26719B6EAC6EBD6EF76E1F
:100200007F6DDF6E2671136E2671CE6E246EF76DD4
:10021000267126712671356E466E576EB688B8887F
:10022000BC88C088C488C888CC88D088D488D8883E
:10023000DC88E088E488E888EC8800890089008907
:100240000089008900890089008900890089008966
:100250000089008900890089008900890089008956
:100260000089008900890089008900890089008946
:100270000089008900890089008900890089008936
:10028000F088F488084AD73B3BCE016E84BCBFFDA2
:10029000C12F3D6C74319ABD56833DDA3D00C77F56
:1002A00011BED9E4BB4C3E916BAAAABE00000080EF
:1002B0003F05A84CCDB2D44EB93836A9020C50B97E
:1002C000918688083CA6AAAA2ABE000000803F07A3
:1002D000634236B79BD8A71A39685618AEBAAB55E1
:1002E0008C1D3CB7CC5763BD6DEDFD753EF61772A6
:1002F00031BF000000803F08000000BE9224491278
:100300003EABAAAA2ABECDCCCC4C3E00000080BE9B
:10031000ABAAAAAA3E00000000BF000000803F0078
:1003200000000000084178D3BB4387D1133D190E6C
:100330003CC3BD4282AD2B3E68EC8276BED98FE1D4
:10034000A93E4C80EFFFBE01C4FF7F3F00000000CC
:10035000006E616E00696E660073797300666200FC
:1003600000000007025B223052D84C584B2A37D786
:1003700003BE4373797300667600000000070377BD
:10038000223052D84C584B2E373333733F73797326
:1003900000687600000000070095223052D84C6CAF
:1003A0005832370000E04073797300696400000040
:1003B000000400B322D851DD5B584B263700000003
:1003C00000000000006E00000000000100C722765F
:1003D00051B34C2F4C502200000000000000006C74
:1003E000696E6500000100C72276515C582F4C50A1
:1003F0002200000000000000006665656400000047
:1004000002DB221054D453584B2637000000000062
:100410000000007374617400000000F322D85129B9
:100420005D584B263700000000000000006D61633E
:1004300073000000000C23D8511B5D584B26370079
:1004400000000000000000637963730000000025D5
:1004500023D8510D5D584B263700000000000000E6
:10046000006D6F7473000000003E23D851FF5C588C
:100470004B26370000000000000000686F6C64002D
:100480000000005723D851F15C584B26370000007C
:10049000000000000076656C000000000270231070
:1004A000542B58584B263700000000000000007500
:1004B0006E6974000000008723D851E35C584B2616
:1004C000370000000000000000636F6F7200000042
:1004D00000A023D851D55C584B26370000000000FF
:1004E0000000006D6F6D6F00000000B923D851C788
:1004F0005C584B26370000000000000000706C6163
:100500006E00000000D223D851B95C584B2637004A
:10051000000000000000007061746800000000EB43
:1005200023D851AB5C584B26370000000000000078
:100530000064697374000000000424D8519D5C5865
:100540004B2637000000000000000066726D6F004F
:100550000000001D24D8518F5C584B263700000046
:10056000006D706F006D706F78000000033624B46A
:10057000560558584B2637000000006D706F006D0F
:10058000706F79000000033624B4560558584B2686
:1005900037000000006D706F006D706F7A00000012
:1005A000033624B4560558584B2637000000006D1A
:1005B000706F006D706F61000000033624B4560543
:1005C00058584B2637000000006D706F006D706F3B
:1005D00062000000033624B4560558584B263700F5
:1005E0000000006D706F006D706F630000000336D7
:1005F00024B4560558584B263700000000706F731E
:1006000000706F7378000000035024A856DF57581D
:100610004B263700000000706F7300706F73790015
:100620000000035024A856DF57584B26370000001F
:1006300000706F7300706F737A000000035024A87D
:1006400056DF57584B263700000000706F7300705C
:100650006F7361000000035024A856DF57584B26E3
:100660003700000000706F7300706F73620000004D
:10067000035024A856DF57584B263700000000705F
:100680006F7300706F7363000000035024A856DF7F
:1006900057584B2637000000006F6673006F667373
:1006A00078000000036624B456B957584B2637002B
:1006B0000000006F6673006F6673790000000366C8
:1006C00024B456B957584B2637000000006F6673A4
:1006D000006F66737A000000036624B456B9575859
:1006E0004B2637000000006F6673006F6673610071
:1006F0000000036624B456B957584B263700000053
:10070000006F6673006F667362000000036624B4B6
:1007100056B957584B2637000000006F6673006FBC
:10072000667363000000036624B456B957584B261D
:100730003700000000686F6D00686F6D6500000095
:10074000007F24D851815CA857263700000000683C
:100750006F6D00686F6D78000000009824A8568EB9
:100760004C584BE63E00000000686F6D00686F6DEE
:1007700079000000009824A8568E4C584BE73E00A4
:10078000000000686F6D00686F6D7A0000000098CF
:1007900024A8568E4C584BE83E00000000686F6D50
:1007A00000686F6D61000000009824A8568E4C58B8
:1007B0004BE93E00000000686F6D00686F6D6200DD
:1007C0000000009824A8568E4C584BEA3E000000CA
:1007D00000686F6D00686F6D63000000009824A8CA
:1007E000568E4C584BEB3E0000000000000000739A
:1007F00072000000000000B424A557A1579E5726A0
:1008000037000000000000000071720000000000CE
:1008100000B52476518757584B263700000000005A
:100820000000007166000000000000B424064D8A3C
:100830004C8357263700000000000000006572005E
:100840000000000000B424064D7C57584B263700AA
:10085000000000000000007278000000000000BCF2
:100860002476516557584B263700000000000000E1
:10087000006D73670000000000C324D8518A4C58F3
:100880004B26370000000000000000746573740000
:10089000000000B424064D2E749F883637000000F7
:1008A00000000000006465666100000000B42406DA
:1008B0004DFC737A592637000000000000000062EA
:1008C0006F6F7400000000B424064DCA7361572690
:1008D00037000000000000000068656C7000000038
:1008E00000B424064D6074584B2637000000000009
:1008F0000000006800000000000000B424064D6005
:1009000074584B26370000000031000000316D6143
:100910000000000300C72407518E4C5A4B373C009F
:10092000000000310000003173610000000302F498
:10093000249850D84CBC553B3C6666E63F310000DD
:1009400000317472000000030313255153D453B0D7
:10095000553F3C0000A03F31000000316D690000B0
:100960000003003C2507518E4C6260383C000000BB
:10097000413100000031706F000000030061250765
:10098000518E4C1157393C000000003100000031FD
:10099000706D00000003008F2507518E4CB8563A49
:1009A0003C0000000032000000326D6100000003D6
:1009B00000C72407518E4C5A4B473C0000803F3201
:1009C0000000003273610000000302F4249850D844
:1009D0004CBC554B3C6666E63F32000000327472F8
:1009E000000000030313255153D453B0554F3C006E
:1009F00000A03F32000000326D6900000003003C9F
:100A00002507518E4C6260483C00000041320000D6
:100A10000032706F0000000300612507518E4C11F9
:100A200057493C000000003200000032706D0000A9
:100A30000003008F2507518E4CB8564A3C00000039
:100A40000033000000336D610000000300C724077D
:100A5000518E4C5A4B573C0000004033000000338D
:100A600073610000000302F4249850D84CBC555B1D
:100A70003C6666E63F3300000033747200000003FA
:100A80000313255153D453B0555F3C0000A03F33AE
:100A9000000000336D6900000003003C2507518E03
:100AA0004C6260583C000000413300000033706F1E
:100AB0000000000300612507518E4C1157593C007E
:100AC0000000003300000033706D00000003008F51
:100AD0002507518E4CB8565A3C00000000340000E7
:100AE00000346D610000000300C72407518E4C5A8A
:100AF0004B673C000040403400000034736100004C
:100B0000000302F4249850D84CBC556B3C6666E652
:100B10003F340000003474720000000303132551B9
:100B200053D453B0556F3C0000B44334000000343C
:100B30006D6900000003003C2507518E4C6260681F
:100B40003C000000413400000034706F00000003DE
:100B500000612507518E4C1157693C00000000349C
:100B600000000034706D00000003008F2507518ED7
:100B70004CB8566A3C0000803F7800000078616DF8
:100B80000000000300D8251F50535CBA54773C0086
:100B900000803F7800000078766D0000000300F4CC
:100BA000255153D45315537C3C0000164478000063
:100BB0000078667200000003001C265153D45315C0
:100BC00053783C000016447800000078746D0000F3
:100BD00000030044265153D4531553803C000016A3
:100BE0004378000000786A6D00000003006626511B
:100BF00053D4531553843C8096984B78000000786A
:100C00006A6800000003008C265153D4531553A08A
:100C10003C8096984B78000000786A6400000003DE
:100C200004B1265153D4531553883CCDCC4C3D7858
:100C300000000078736E0000000300EA2607518E62
:100C40004C7E544A470000803F780000007873785B
:100C500000000003002C2707518E4C7E544B4700A8
:100C60000000007800000078737600000003006E3A
:100C7000275153D4531553903C0000FA4378000099
:100C800000786C76000000030095275153D453156B
:100C900053943C0000C84278000000786C62000069
:100CA000000303BB275153D4531553983C00000055
:100CB0004078000000787A620000000303DC2751CE
:100CC00053D45315539C3C0000803F7900000079B9
:100CD000616D0000000300D8251F50535CBA54A476
:100CE0003C0000803F7900000079766D0000000331
:100CF00000F4255153D4531553A93C0000164479F0
:100D000000000079667200000003001C265153D4D5
:100D1000531553A53C000016447900000079746D0A
:100D2000000000030044265153D4531553AD3C003A
:100D300000164379000000796A6D00000003006628
:100D4000265153D4531553B13C8096984B790000EB
:100D500000796A6800000003008C265153D45315B3
:100D600053CD3C8096984B79000000796A6400006E
:100D7000000304B1265153D4531553B53CCDCC4C8C
:100D80003D7900000079736E0000000300EA260739
:100D9000518E4C7E544C470000803F790000007912
:100DA000737800000003002C2707518E4C7E544DB1
:100DB000470000000079000000797376000000030E
:100DC000006E275153D4531553BD3C0000FA4379AC
:100DD000000000796C76000000030095275153D481
:100DE000531553C13C0000C84279000000796C6281
:100DF0000000000303BB275153D4531553C53C00D7
:100E000000004079000000797A620000000303DCF2
:100E1000275153D4531553C93C0000803F7A00003A
:100E2000007A616D0000000300D8251F50535CBAA2
:100E300054D13C0000803F7A0000007A766D0000BB
:100E4000000300F4255153D4531553D63C0000162B
:100E5000447A0000007A667200000003001C2651EC
:100E600053D4531553D23C000016447A0000007A44
:100E7000746D000000030044265153D4531553DA17
:100E80003C000096427A0000007A6A6D0000000380
:100E90000066265153D4531553DE3C8096984B7A06
:100EA0000000007A6A6800000003008C265153D4C9
:100EB000531553FA3C8096984B7A0000007A6A6486
:100EC0000000000304B1265153D4531553E23CCD26
:100ED000CC4C3D7A0000007A736E0000000300EAFB
:100EE0002607518E4C7E544E47000000007A0000C9
:100EF000007A737800000003002C2707518E4C7E87
:100F0000544F470000803F7A0000007A737600005B
:100F10000003006E275153D4531553EA3C0000C818
:100F2000437A0000007A6C76000000030095275198
:100F300053D4531553EE3C0000C8427A0000007AA7
:100F40006C620000000303BB275153D4531553F2C6
:100F50003C000000407A0000007A7A620000000342
:100F600003DC275153D4531553F63C0000803F61F6
:100F700000000061616D0000000300D8251F505380
:100F80005CBA54FE3C000040406100000061766D98
:100F90000000000300F4259850D84C594C033D0044
:100FA000C028486100000061667200000003001C58
:100FB000269850D84C594CFF3C00C028486100008E
:100FC0000061746D000000030044269850D84C590D
:100FD0004C073D000080BF61000000616A6D0000A9
:100FE00000030066269850D84C594C0B3D50A9ABD5
:100FF0004F61000000616A6800000003008C265108
:1010000053D4531553273D50A9AB4F6100000061E5
:101010006A640000000304B1269850D84C594C0F64
:101020003DCDCC4C3D6100000061726100000003C9
:1010300003FC279850D84C594C133DD5B74B3E6113
:1010400000000061736E0000000300EA2607518E65
:101050004C7E5450470000803F610000006173786F
:1010600000000003002C2707518E4C7E545147008E
:101070000000006100000061737600000003006E54
:10108000279850D84C594C173D0000164461000079
:1010900000616C76000000030095279850D84C59E9
:1010A0004C1B3D0000C84261000000616C62000002
:1010B000000303BB279850D84C594C1F3D0000A09B
:1010C0004061000000617A620000000303DC2798A1
:1010D00050D84C594C233D00000040620000006293
:1010E000616D0000000300D8251F50535CBA542BDB
:1010F0003D000000006200000062766D0000000309
:1011000000F4259850D84C594C303D0000614562A0
:1011100000000062667200000003001C269850D890
:101120004C594C2C3D000061456200000062746D1A
:10113000000000030044269850D84C594C343D0020
:101140000080BF62000000626A6D0000000300665C
:10115000269850D84C594C383D8096984B620000E8
:1011600000626A640000000300B1269850D84C5910
:101170004C3C3DCDCC4C3D620000006272610000F1
:10118000000303FC279850D84C594C403D00008088
:101190003F6300000063616D0000000300D8251F5D
:1011A00050535CBA54583D000000006300000063D7
:1011B000766D0000000300F4259850D84C594C5D22
:1011C0003D0000614563000000636672000000039B
:1011D000001C269850D84C594C593D00006145637D
:1011E00000000063746D000000030044269850D88E
:1011F0004C594C613D000080BF63000000636A6D84
:10120000000000030066269850D84C594C653D807C
:1012100096984B63000000636A640000000300B10D
:10122000269850D84C594C693DCDCC4C3D630000BC
:10123000006372610000000303FC279850D84C59EA
:101240004C6D3D0000803F7031000070316672715E
:101250000003001C283052D84C594C853D0000C872
:101260004270310000703163736C0003003F28301E
:1012700052D84C594C893D00007A447031000070BE
:101280003163736800030063283052D84C594C8D89
:101290003D0000FA4470310000703163706C00034F
:1012A0000387283052D84C594C913D0000003E70C5
:1012B0003100007031637068000303AE283052D8EB
:1012C0004C594C953DCDCC4C3E703100007031777F
:1012D000736C000300D5283052D84C594C993D000E
:1012E000007A44703100007031777368000300F9B0
:1012F000283052D84C594C9D3D0000FA44703100C2
:1013000000703177706C0003031D293052D84C599E
:101310004CA13D0000003E703100007031777068D4
:1013200000030344293052D84C594CA53DCDCC4C38
:101330003E703100007031706F660003036B29BC92
:101340004FD84C594CA93DCDCCCC3D6735340067C6
:101350003534780000030392298D52D4531553A7D6
:101360003B00000000673534006735347900000326
:101370000392298D52D4531553AB3B0000000067F4
:101380003534006735347A0000030392298D52D436
:10139000531553AF3B000000006735340067353408
:1013A000610000030392294C4FD4531553B33B0003
:1013B0000000006735340067353462000003039293
:1013C000294C4FD4531553B73B0000000067353408
:1013D00000673534630000030392294C4FD4531542
:1013E00053BB3B000000006735350067353578009A
:1013F00000030392298D52D4531553BF3B0000962E
:101400004267353500673535790000030392298D31
:1014100052D4531553C33B000096426735350067DD
:1014200035357A0000030392298D52D4531553C7E2
:101430003B0000000067353500673535610000036B
:101440000392294C4FD4531553CB3B000000006747
:10145000353500673535620000030392294C4FD4BF
:10146000531553CF3B000000006735350067353515
:10147000630000030392294C4FD4531553D33B0010
:1014800000000067353600673536780000030392A8
:10149000298D52D4531553D73B00000000673536D1
:1014A00000673536790000030392298D52D4531515
:1014B00053DB3B00000000673536006735367A00A5
:1014C00000030392298D52D4531553DF3B000000D3
:1014D0000067353600673536610000030392294CFA
:1014E0004FD4531553E33B000000006735360067C7
:1014F0003536620000030392294C4FD4531553E74D
:101500003B00000000673536006735366300000396
:101510000392294C4FD4531553EB3B000000006756
:10152000353700673537780000030392298D52D490
:10153000531553EF3B000000006735370067353720
:10154000790000030392298D52D4531553F33B00C5
:10155000000000673537006735377A0000030392D3
:10156000298D52D4531553F73B00000000673537DF
:1015700000673537610000030392294C4FD453159F
:1015800053FB3B00000000673537006735376200CA
:1015900000030392294C4FD4531553FF3B00000026
:1015A0000067353700673537630000030392294C25
:1015B0004FD4531553033C000000006735380067D3
:1015C0003538780000030392298D52D45315530700
:1015D0003C000000006735380067353879000003AB
:1015E0000392298D52D45315530B3C000000006721
:1015F0003538006735387A0000030392298D52D4BC
:101600005315530F3C00000000673538006735382C
:10161000610000030392294C4FD4531553133C002F
:101620000000006735380067353862000003039218
:10163000294C4FD4531553173C0000000067353830
:1016400000673538630000030392294C4FD45315CB
:10165000531B3C00000000673539006735397800BE
:1016600000030392298D52D45315531F3C000000F0
:101670000067353900673539790000030392298DF9
:1016800052D4531553233C000000006735390067DE
:1016900035397A0000030392298D52D4531553270C
:1016A0003C000000006735390067353961000003F0
:1016B0000392294C4FD45315532B3C000000006774
:1016C000353900673539620000030392294C4FD445
:1016D0005315532F3C00000000673539006735393A
:1016E000630000030392294C4FD4531553333C003D
:1016F0000000006739320067393278000001039238
:10170000298D52D453584B8422000000006739328F
:1017100000673932790000010392298D52D4535861
:101720004B882200000000673932006739327A00A6
:1017300000010392298D52D453584B8C2200000093
:101740000067393200673932610000010392294C89
:101750004FD84C584B902200000000673932006788
:101760003932620000010392294C4FD84C584B94F7
:10177000220000000067393200673932630000013F
:101780000392294C4FD84C584B9822000000006718
:101790003238006732387800000103AF298D52D407
:1017A00053584BCC220000000067323800673238B3
:1017B0007900000103AF298D52D453584BD0220039
:1017C000000000673238006732387A00000103AF4A
:1017D000298D52D453584BD4220000000067323870
:1017E000006732386100000103AF294C4FD84C58D4
:1017F0004BD82200000000673238006732386200A0
:10180000000103AF294C4FD84C584BDC220000009C
:1018100000673238006732386300000103AF294C9B
:101820004FD84C584BE0220000000067333000676F
:1018300033307800000103AF298D52D453584BE464
:101840002200000000673330006733307900000168
:1018500003AF298D52D453584BE822000000006793
:101860003330006733307A00000103AF298D52D442
:1018700053584BEC220000000067333000673330D0
:101880006100000103AF294C4FD84C584BF02200A7
:10189000000000673330006733306200000103AF9F
:1018A000294C4FD84C584BF42200000000673330CD
:1018B000006733306300000103AF294C4FD84C5808
:1018C0004BF82200000000737973006A6100000089
:1018D000000700CE291054D4531553B03A0050C31A
:1018E00047737973006374000000000704F2291045
:1018F00054D4531553B43A6F12833A737973007307
:1019000074000000000700132AEF4E8E4C7E5447EF
:101910004700000000737973006D74000000000739
:1019200000362A7651B34C2F4CB83A000070420072
:101930000000006D65000000000100592AD851EB3D
:101940004EEB4E263700000000000000006D6400E2
:101950000000000000692AD851E74EE74E26370004
:1019600000000073797300656A0000000007007AC8
:101970002AEF4E8E4C814BD13A00000000737973F0
:10198000006A76000000000700A62AEF4E8E4C8702
:101990004AD93A00008040737973007476000000E1
:1019A000000700FD2AEF4E8E4C814BDA3A00008092
:1019B0003F7379730071760000000007002C2BEF55
:1019C0004E8E4CF54BD63A000000007379730073CD
:1019D000760000000007006A2BEF4E8E4CBB4BE2F6
:1019E0003A0000803F7379730073690000000007BC
:1019F00000A92B3052B34C5E4AE33A00007A43739D
:101A00007973006963000000000700C92BEF4E8E58
:101A10004CAD4ED23A00000000737973006563004C
:101A20000000000700FB2BEF4E8E4C7E4ED33A0099
:101A30000000007379730065650000000007002A4C
:101A40002CEF4E8E4C4F4ED43A0000000073797349
:101A50000065780000000007004E2CEF4E8E4C20F1
:101A60004ED53A0000803F7379730062617564005F
:101A70000004008B2CEF4E8E4CFD60DB3A0000A082
:101A8000407379730067706C0000000700D82CEF7A
:101A90004E8E4CBB4BCD3A0000000073797300674B
:101AA000756E00000007000B2DEF4E8E4C814BCE63
:101AB0003A0000803F7379730067636F000000078E
:101AC000003C2DEF4E8E4C5A4BCC3A0000803F73B9
:101AD0007973006770610000000700712DEF4E8E72
:101AE0004CBB4BCF3A0000004073797300676469C8
:101AF0000000000700AC2DEF4E8E4C814BD03A0019
:101B0000000000000000006763000000000000B457
:101B100024064DCB5BEF4D2637000000000000008F
:101B2000006D73000000000300E02D1054D84C59E4
:101B30004CC83A00409C45000000006D6C0000005D
:101B4000000304032E1054D4531553C03A0AD7A3EC
:101B50003D000000006D61000000000304232E1012
:101B600054D4531553C43ACDCCCC3D000000007181
:101B700072680000000300422EEF4E8E4C5A4BD785
:101B80003A0000A0410000000071726C00000003E8
:101B900000422EEF4E8E4C5A4BD83A000000407354
:101BA0007973006E65740000000300422EEF4E8EC4
:101BB0004C5A4B3A370000000000000000736530BB
:101BC0003000000200B424064DB34C2F4CE73A001D
:101BD000000000000000007365303100000200B416
:101BE00024064DB34C2F4CE93A00000000000000E1
:101BF000007365303200000200B424064DB34C2F50
:101C00004CEB3A0000000000000000736530330028
:101C1000000200B424064DB34C2F4CED3A000000F6
:101C200000000000007365303400000200B4240698
:101C30004DB34C2F4CEF3A00000000000000007341
:101C400065303500000200B424064DB34C2F4CF132
:101C50003A0000000000000000736530360000020A
:101C600000B424064DB34C2F4CF33A0000000000A2
:101C70000000007365303700000200B424064DB345
:101C80004C2F4CF53A000000000000000073653056
:101C90003800000200B424064DB34C2F4CF73A0034
:101CA000000000000000007365303900000200B43D
:101CB00024064DB34C2F4CF93A0000000000000000
:101CC000007365313000000200B424064DB34C2F80
:101CD0004CFB3A0000000000000000736531310049
:101CE000000200B424064DB34C2F4CFD3A00000016
:101CF00000000000007365313200000200B42406C9
:101D00004DB34C2F4CFF3A00000000000000007360
:101D100065313300000200B424064DB34C2F4C0152
:101D20003B00000000000000007365313400000239
:101D300000B424064DB34C2F4C033B0000000000C0
:101D40000000007365313500000200B424064DB375
:101D50004C2F4C053B000000000000000073653173
:101D60003600000200B424064DB34C2F4C073B0054
:101D7000000000000000007365313700000200B46D
:101D800024064DB34C2F4C093B000000000000001E
:101D9000007365313800000200B424064DB34C2FA7
:101DA0004C0B3B000000000000000073653139005F
:101DB000000200B424064DB34C2F4C0D3B00000034
:101DC00000000000007365323000000200B42406F9
:101DD0004DB34C2F4C0F3B0000000000000000737F
:101DE00065323100000200B424064DB34C2F4C1173
:101DF0003B0000000000000000736532320000026A
:101E000000B424064DB34C2F4C133B0000000000DF
:101E10000000007365323300000200B424064DB3A5
:101E20004C2F4C153B00000000000000007379733C
:101E30000000000000B424064DB15D535926370060
:101E4000000000000000007031000000000000B43D
:101E500024064DB15D5359263700000000000000F4
:101E6000003100000000000000B424064DB15D53B5
:101E7000592637000000000000000032000000007A
:101E8000000000B424064DB15D5359263700000010
:101E900000000000003300000000000000B4240631
:101EA0004DB15D535926370000000000000000349A
:101EB00000000000000000B424064DB15D53592617
:101EC0003700000000000000007800000000000063
:101ED00000B424064DB15D535926370000000000C0
:101EE0000000007900000000000000B424064DB19D
:101EF0005D5359263700000000000000007A000002
:101F00000000000000B424064DB15D53592637008F
:101F1000000000000000006100000000000000B4AC
:101F200024064DB15D535926370000000000000023
:101F3000006200000000000000B424064DB15D53B3
:101F40005926370000000000000000630000000078
:101F5000000000B424064DB15D535926370000003F
:101F600000000000006735340000000000B42406C3
:101F70004DB15D5359263700000000000000006796
:101F800035350000000000B424064DB15D535926DC
:101F90003700000000000000006735360000000038
:101FA00000B424064DB15D535926370000000000EF
:101FB0000000006735370000000000B424064DB172
:101FC0005D535926370000000000000000673538D7
:101FD0000000000000B424064DB15D5359263700BF
:101FE000000000000000006735390000000000B468
:101FF00024064DB15D535926370000000000000053
:10200000006739320000000000B424064DB15D5372
:102010005926370000000000000000673238000039
:10202000000000B424064DB15D535926370000006E
:1020300000000000006733300000000000B42406F8
:102040004DB15D5359263700000000000000006DBF
:10205000706F0000000000B424064DB15D53592696
:10206000370000000000000000706F7300000000E7
:1020700000B424064DB15D5359263700000000001E
:102080000000006F66730000000000B424064DB12C
:102090005D535926370000000000000000686F6D96
:1020A0000000000000B424064DB15D5359263700EE
:1020B000000000000000006D00000000000000B4FF
:1020C00024064D7A5F584B263700000000000000C0
:1020D000007100000000000000B424064D215F588C
:1020E0004B263700000000000000006F00000000D9
:1020F000000000B424064DAA5E584B2637000000AD
:1021000000000000002400000000000000B42406CD
:102110004DBF5F584B263700000000462E482E4D1D
:102120002E532E592E5F2E662E2A2A2A204E4F54C9
:10213000494345202A2A2A205265737474696E67C0
:102140002062617564207261746520746F2025536C
:10215000002A2A2A205741524E494E47202A2A2A2D
:1021600020496C6C6567616C2062617564207261E6
:10217000746520737065636966696564006D2E71AE
:102180002E752E7A2E852E902E9C2E2A2A2A2057A6
:1021900041524E494E47202A2A2A205365747469B9
:1021A0006E67206E6F6E2D7374616E646172642051
:1021B0006D6963726F737465702076616C7565000C
:1021C000A52EAF2EB52EE62EFE2E1B2F3B2F3B2F1E
:1021D000512F672F762F852F942FB12FC32FDC2FF0
:1021E000FD2F243044305E3078309230AC30C63031
:1021F000E030F23008310C31113116311C3121310F
:1022000026312A312F3133313B314231483155317A
:102210005B31613166316A3177317D3186318B31A5
:102220008F31933198319E31A431AB312C000A00AB
:1022300025733A25730025733A25312E3066002523
:10224000733A25312E3366002C000A0025730025D1
:10225000312E30660025312E3366005B66625D20CC
:10226000206669726D77617265206275696C64259C
:1022700031382E32660A005B66765D202066697210
:102280006D776172652076657273696F6E25313680
:102290002E32660A005B68765D2020686172647782
:1022A0006172652076657273696F6E2531362E32E4
:1022B000660A005B69645D202054696E7947204995
:1022C00044253330730A004C696E65206E756D626B
:1022D00065723A2531302E30660A00466565642005
:1022E000726174653A2531362E336625532F6D6938
:1022F0006E0A004D616368696E6520737461746570
:102300003A2020202020202025730A0052617720C7
:102310006D616368696E652073746174653A20202D
:102320002025730A004379636C65207374617465BA
:102330003A20202020202020202025730A004D6FE5
:1023400074696F6E2073746174653A2020202020B8
:1023500020202025730A0046656564686F6C642040
:1023600073746174653A20202020202025730A00B0
:1023700056656C6F636974793A2531372E3366255B
:10238000532F6D696E0A00556E6974733A202020D0
:1023900020202020202020202020202025730A001B
:1023A000436F6F7264696E617465207379737465CD
:1023B0006D3A20202025730A004D6F74696F6E20DE
:1023C0006D6F64653A202020202020202020257376
:1023D0000A00506C616E653A2020202020202020C9
:1023E0002020202020202025730A005061746820BE
:1023F0004D6F64653A2020202020202020202020BE
:1024000025730A0044697374616E6365206D6F649F
:10241000653A2020202020202025730A004665658B
:10242000642072617465206D6F64653A20202020FD
:10243000202025730A002563206D616368696E653D
:1024400020706F736E3A2531312E336625530A00A2
:10245000256320706F736974696F6E3A2531352E6C
:10246000336625530A00256320776F726B206F66F1
:10247000667365743A2531322E336625530A004D52
:10248000616368696E6520686F6D696E672073743B
:1024900061743A2025730A002563206178697320EE
:1024A000686F6D696E672073746174653A25322EAA
:1024B00030660A000071723A25640A0072783A2583
:1024C000640A0025730A005B257325735D206D2562
:1024D00073206D617020746F2061786973253135C8
:1024E00064205B303D582C313D592C323D5A2E2E04
:1024F0002E5D0A005B257325735D206D25732073A7
:1025000074657020616E676C652532302E336625E8
:10251000530A005B257325735D206D25732074724B
:102520006176656C20706572207265766F6C75746B
:10253000696F6E25392E336625530A005B25732596
:10254000735D206D2573206D6963726F73746570A0
:102550007325313664205B312C322C342C385D0AE3
:10256000005B257325735D206D257320706F6C6192
:102570007269747925313864205B303D6E6F726DFD
:10258000616C2C313D726576657273655D0A005B26
:10259000257325735D206D257320706F776572201C
:1025A0006D616E6167656D656E7425313064205BA9
:1025B000303D72656D61696E20706F77657265641C
:1025C0002C313D73687574206F6666207768656E80
:1025D0002069646C655D0A005B257325735D2025A9
:1025E000732061786973206D6F64652531386420CC
:1025F00025530A005B257325735D202573207665BE
:102600006C6F63697479206D6178696D756D2531C2
:10261000352E336625532F6D696E0A005B257325B1
:10262000735D202573206665656472617465206D35
:102630006178696D756D2531352E336625532F6DA3
:10264000696E0A005B257325735D20257320747203
:102650006176656C206D6178696D756D2531372EF9
:10266000336625530A005B257325735D202573208F
:102670006A65726B206D6178696D756D2531352ED7
:10268000306625532F6D696E5E330A005B25732516
:10269000735D202573206A65726B20686F6D696EAB
:1026A000672531362E306625532F6D696E5E330AED
:1026B000005B257325735D202573206A756E637436
:1026C000696F6E20646576696174696F6E25313457
:1026D0002E3466255320286C6172676572206973F9
:1026E00020666173746572290A005B257325735D2A
:1026F00020257320737769746368206D696E2531B6
:102700003764205B303D6F66662C313D686F6D69C4
:102710006E672C323D6C696D69742C333D6C696D4C
:1027200069742B686F6D696E675D0A005B257325A0
:10273000735D20257320737769746368206D6178F9
:1027400025313764205B303D6F66662C313D686F04
:102750006D696E672C323D6C696D69742C333D6C0C
:10276000696D69742B686F6D696E675D0A005B2522
:102770007325735D2025732073656172636820760D
:10278000656C6F636974792531362E336625532F56
:102790006D696E0A005B257325735D202573206CBF
:1027A000617463682076656C6F636974792531376D
:1027B0002E336625532F6D696E0A005B25732573D2
:1027C0005D202573206C61746368206261636B6FA8
:1027D00066662531382E336625530A005B2573253E
:1027E000735D202573207A65726F206261636B6F61
:1027F00066662531392E336625530A005B2573251D
:10280000735D202573207261646975732076616C35
:1028100075652532302E346625530A005B703166AB
:1028200072715D2070776D206672657175656E637B
:10283000792020202531352E336620487A0A005B26
:10284000703163736C5D2070776D206377207370D7
:10285000656564206C6F202531352E33662052501B
:102860004D0A005B70316373685D2070776D206383
:1028700077207370656564206869202531352E33B3
:10288000662052504D0A005B703163706C5D2070A1
:10289000776D206377207068617365206C6F2025E9
:1028A00031352E3366205B302E2E315D0A005B7091
:1028B000316370685D2070776D2063772070686188
:1028C0007365206869202531352E3366205B302EF4
:1028D0002E315D0A005B703177736C5D2070776D0F
:1028E00020636377207370656564206C6F253135D4
:1028F0002E33662052504D0A005B70317773685D4D
:102900002070776D2063637720737065656420683D
:10291000692531352E33662052504D0A005B7031E7
:1029200077706C5D2070776D2063637720706861CD
:102930007365206C6F2531352E3366205B302E2E6B
:10294000315D0A005B70317770685D2070776D20B3
:102950006363772070686173652068692531352E5F
:102960003366205B302E2E315D0A005B7031706F54
:10297000665D2070776D207068617365206F666694
:102980002020202531352E3366205B302E2E315D00
:102990000A005B257325735D202573202573206F46
:1029A00066667365742532302E336625530A005BE4
:1029B000257325735D202573202573206C6F63615B
:1029C00074696F6E2531382E336625530A005B6AB1
:1029D000615D20206A756E6374696F6E2061636348
:1029E000656C65726174696F6E25382E306625538B
:1029F0000A005B63745D202063686F7264616C2001
:102A0000746F6C6572616E63652531362E33662591
:102A1000530A005B73745D202073776974636820C8
:102A20007479706525313864205B303D4E4F2C3110
:102A30003D4E435D0A005B6D745D20206D6F746FC9
:102A40007220646973626C652074696D656F75745A
:102A5000253964205365630A006D6F746F727320AB
:102A6000656E61626C65640A006D6F746F727320CD
:102A700064697361626C65640A005B656A5D20204D
:102A8000656E61626C65206A736F6E206D6F646540
:102A900025313364205B303D746578742C313D4AB8
:102AA000534F4E5D0A005B6A765D20206A736F6E3D
:102AB00020766572626F7369747925313564205BA5
:102AC000303D73696C656E742C313D666F6F746553
:102AD000722C323D6D657373616765732C333D6392
:102AE0006F6E666967732C343D6C696E656E756DCB
:102AF0002C353D766572626F73655D0A005B747696
:102B00005D20207465787420766572626F736974D5
:102B10007925313564205B303D73696C656E742CAA
:102B2000313D766572626F73655D0A005B71765D3B
:102B300020207175657565207265706F72742076DE
:102B40006572626F73697479253764205B303D6FFD
:102B500066662C313D66696C74657265642C323D25
:102B6000766572626F73655D0A005B73765D202027
:102B7000737461747573207265706F7274207665FA
:102B800072626F73697479253664205B303D6F66BD
:102B9000662C313D66696C74657265642C323D76D5
:102BA0006572626F73655D0A005B73695D202073F7
:102BB000746174757320696E74657276616C253109
:102BC000342E3066206D730A005B69635D202069D6
:102BD000676E6F7265204352206F72204C46206FE3
:102BE0006E205258253864205B303D6F66662C316C
:102BF0003D43522C323D4C465D0A005B65635D20CF
:102C000020657870616E64204C4620746F204352BA
:102C10004C46206F6E205458253664205B303D6F43
:102C200066662C313D6F6E5D0A005B65655D202038
:102C3000656E61626C65206563686F25313864205C
:102C40005B303D6F66662C313D6F6E5D0A005B65E3
:102C5000785D2020656E61626C6520666C6F772000
:102C6000636F6E74726F6C25313064205B303D6F22
:102C700066662C313D584F4E2F584F46462C203219
:102C80003D5254532F4354535D0A005B6261756497
:102C90005D20555342206261756420726174652520
:102CA000313564205B313D393630302C323D31399D
:102CB0003230302C333D33383430302C343D3537DE
:102CC0003630302C353D3131353230302C363D32D6
:102CD00033303430305D0A005B67706C5D206465B2
:102CE0006661756C742067636F646520706C616EDB
:102CF0006525313064205B303D4731372C313D470D
:102D000031382C323D4731395D0A005B67756E5DA5
:102D10002064656661756C742067636F64652075F7
:102D20006E697473206D6F6465253564205B303D7A
:102D30004732302C313D4732315D0A005B67636FAB
:102D40005D2064656661756C742067636F646520DF
:102D5000636F6F72642073797374656D25336420BB
:102D60005B312D3620284735342D473539295D0A0A
:102D7000005B6770615D2064656661756C742067D7
:102D8000636F6465207061746820636F6E74726F26
:102D90006C253364205B303D4736312C313D47365E
:102DA000312E312C323D4736345D0A005B67646951
:102DB0005D2064656661756C742067636F6465206F
:102DC00064697374616E6365206D6F646525326438
:102DD000205B303D4739302C313D4739315D0A00A9
:102DE0005B6D735D20206D696E207365676D656E28
:102DF000742074696D652531332E306620755365F6
:102E0000630A005B6D6C5D20206D696E206C696EDD
:102E100065207365676D656E742531372E336625C1
:102E2000530A005B6D615D20206D696E20617263E5
:102E3000207365676D656E742531382E33662553B2
:102E40000A0025640A00300039363030003139324A
:102E500030300033383430300035373630300031E0
:102E60003135323030003233303430300020696E4A
:102E700000206D6D0020646567005B6469736162AA
:102E80006C65645D005B7374616E646172645D00A7
:102E90005B696E686962697465645D005B72616438
:102EA0006975735D004E6F7420486F6D65640048EE
:102EB0006F6D656400473934202D20756E69747319
:102EC0002D7065722D6D696E757465206D6F64650A
:102ED0002028692E652E2066656564726174652000
:102EE0006D6F64652900473933202D20696E766542
:102EF0007273652074696D65206D6F646500473974
:102F000030202D206162736F6C7574652064697365
:102F100074616E6365206D6F646500473931202DE3
:102F200020696E6372656D656E74616C206469738F
:102F300074616E6365206D6F646500473631202DC6
:102F40002065786163742073746F70206D6F6465A1
:102F500000473634202D20636F6E74696E756F756F
:102F600073206D6F646500473137202D205859203C
:102F7000706C616E6500473138202D20585A2070E2
:102F80006C616E6500473139202D20595A20706CD4
:102F9000616E6500473020202D206C696E6561727E
:102FA00020747261766572736520287365656B297C
:102FB00000473120202D206C696E656172206665A6
:102FC000656400473220202D20636C6F636B776946
:102FD0007365206172632066656564004733202055
:102FE0002D20636F756E74657220636C6F636B77F1
:102FF00069736520617263206665656400473830D7
:10300000202D2063616E63656C206D6F74696F6E37
:10301000206D6F646520286E6F6E65206163746932
:1030200076652900473533202D206D616368696E10
:103030006520636F6F7264696E6174652073797364
:1030400074656D00473534202D20636F6F7264699D
:103050006E6174652073797374656D203100473536
:1030600035202D20636F6F7264696E617465207303
:10307000797374656D203200473536202D20636FDB
:103080006F7264696E6174652073797374656D2005
:103090003300473537202D20636F6F7264696E618E
:1030A00074652073797374656D203400473538205A
:1030B0002D20636F6F7264696E617465207379731C
:1030C00074656D203500473539202D20636F6F7290
:1030D00064696E6174652073797374656D20360060
:1030E000473230202D20696E63686573206D6F64F0
:1030F0006500473231202D206D696C6C696D6574F7
:103100006572206D6F6465004F66660053796E636B
:1031100000506C616E00446563656C00486F6C64C0
:103120000053746F700052756E00486F6C64004FEE
:103130006666005374617274656400486F6D696EF1
:10314000670050726F626500496E697469616C69ED
:103150007A696E67005265736574004379636C65C4
:103160000053746F7000456E6400496E6974696144
:103170006C697A696E67005265616479005368759D
:1031800074646F776E0053746F7000456E64005204
:10319000756E00486F6C640050726F626500437911
:1031A000636C6500486F6D696E67004A6F67006DFC
:1031B0006D00696E63680074696E7967205B2553E2
:1031C0005D206F6B3E200074696E7967205B25532C
:1031D0005D206572723A2025733A202573200045E0
:1031E0006E64206F6620636F6D6D616E642066692A
:1031F0006C650A007A327C327E3280322A2A2A209A
:103200005741524E494E47202A2A2A20486F6D695D
:103210006E67206572726F723A202553206178695B
:10322000732073657474696E6773206D6973636F5F
:103230006E66696775726564002A2A2A20574152B2
:103240004E494E47202A2A2A20486F6D696E672012
:103250006572726F723A205370656369666965645E
:103260002061786973286573292063616E6E6F74BD
:1032700020626520686F6D656400580059005A002F
:103280004100456E7465722024626F6F743D312079
:10329000746F20656E7465722074686520626F6F4C
:1032A00074206C6F616465722E0A000A0A0A232377
:1032B00023232054696E794720424F4F54204C4FAE
:1032C000414445522048656C7020232323230A0083
:1032D0000A466F722064657461696C656420546984
:1032E0006E794720696E666F207365653A20687451
:1032F0007470733A2F2F6769746875622E636F6DEF
:103300002F73796E746865746F732F54696E794783
:103310002F77696B692F0A466F7220746865206C7D
:103320006174657374206669726D7761726520736C
:1033300065653A2068747470733A2F2F67697468F2
:1033400075622E636F6D2F73796E746865746F7319
:103350002F54696E79470A506C65617365206C6FF4
:103360006720616E792069737375657320617420BD
:10337000687474703A2F2F7777772E73796E74682C
:1033800065746F732E636F6D2F666F72756D730A40
:10339000486176652066756E0A00456E7465722018
:1033A0002464656661756C74733D3120746F20729E
:1033B00065736574207468652073797374656D2016
:1033C000746F2074686520666163746F727920641D
:1033D000656661756C742076616C7565732E0A5430
:1033E0006869732077696C6C206F76657277726993
:1033F000746520616E79206368616E6765732079FA
:103400006F752068617665206D6164652E0A000A1B
:103410000A0A232323232054696E794720524553F7
:10342000544F52452044454641554C54532048651D
:103430006C7020232323230A00496E766F6B65206E
:1034400073656C66207465737420627920656E7490
:103450006572696E672024746573743D4E207768C9
:10346000657265204E206973206F6E65206F663A25
:103470000A202024746573743D312020736D6F6BB6
:103480006520746573740A202024746573743D325A
:103490002020686F6D696E6720746573742020202A
:1034A00028796F75206D7573742074726970206847
:1034B0006F6D696E67207377697463686573290A35
:1034C000202024746573743D3320207371756172FC
:1034D00065207465737420202028612073657269EB
:1034E0006573206F662073717561726573290A2098
:1034F0002024746573743D342020617263207465E8
:10350000737420202020202028736F6D65206C614B
:1035100072676520636972636C6573290A202024D1
:10352000746573743D3520206477656C6C20746518
:10353000737420202020286D6F766573207370616E
:103540006365642062792031207365636F6E642047
:103550006477656C6C73290A202024746573743D4C
:1035600036202066656564686F6C642074657374CA
:103570002028656E746572202120616E64207E2093
:10358000746F20686F6C6420616E64207265737460
:103590006172742C20726573706563746976656CF2
:1035A00079290A202024746573743D3720204D202A
:1035B000636F64657320746573742020284D2063E5
:1035C0006F64657320696E7465726D696E676C6592
:1035D000642077697468206D6F766573290A2020EE
:1035E00024746573743D3820204A534F4E2074650F
:1035F00073742020202020286D6F74696F6E2074F2
:103600006573742072756E207573696E67204A53F6
:103610004F4E20636F6D6D616E6473290A20202404
:10362000746573743D392020696E76657273652008
:1036300074696D6520746573740A20202474657341
:10364000743D313020726F74617279206D6F7469CE
:103650006F6E20746573740A202024746573743D42
:10366000313120736D616C6C206D6F7665732074E1
:103670006573740A202024746573743D313220739D
:103680006C6F77206D6F76657320746573740A2094
:103690002024746573743D313320636F6F726469E5
:1036A0006E6174652073797374656D206F666673DF
:1036B0006574207465737420284739322C2047358F
:1036C000342D473539290A0A5465737473206173A0
:1036D00073756D6520612063656E74657265642025
:1036E0005859206F726967696E20616E6420617439
:1036F000206C656173742038306D6D20636C65617A
:1037000072616E636520696E20616C6C2064697201
:10371000656374696F6E730A5465737473206173A3
:1037200073756D65205A20686173206174206C6523
:103730006173742034306D6D20706F7369697469C2
:10374000766520636C656172616E63650A546573AA
:1037500074732073746172742077697468206120B7
:103760004730205830205930205A30206D6F766510
:103770000A486F6D696E67206973207468652065FB
:103780007863657074696F6E2E204E6F20696E6964
:103790007469616C20706F736974696F6E206F72E9
:1037A00020636C656172616E63652069732061736B
:1037B00073756D65640A000A0A0A232323232054C3
:1037C000696E79472053454C462054455354204850
:1037D000656C7020232323230A004561636820243D
:1037E00020636F6D6D616E642061626F766520612C
:1037F0006C736F20646973706C6179732074686591
:1038000020746F6B656E20666F722065616368203F
:1038100073657474696E6720696E205B205D206239
:103820007261636B6574730A546F207669657720E3
:1038300073657474696E677320656E746572206158
:1038400020746F6B656E3A0A0A2020243C746F6BFB
:10385000656E3E0A0A466F72206578616D706C6510
:10386000202479667220746F20646973706C6179AA
:10387000207468652059206D617820666565642034
:10388000726174650A0A546F2075706461746520F2
:1038900073657474696E677320656E7465722074E5
:1038A0006F6B656E20657175616C732076616C75E8
:1038B000653A0A0A2020243C746F6B656E3E3D3CDD
:1038C00076616C75653E0A0A466F72206578616D97
:1038D000706C6520247966723D38303020746F201A
:1038E000736574207468652059206D617820666561
:1038F0006564207261746520746F20383030206DEB
:103900006D2F6D696E7574650A466F7220636F6EF8
:1039100066696775726174696F6E20646574616948
:103920006C73207365653A2068747470733A2F2F36
:103930006769746875622E636F6D2F73796E746832
:1039400065746F732F54696E79472F77696B692F90
:1039500054696E79472D436F6E666967757261743D
:10396000696F6E0A00546865736520636F6D6D61E1
:103970006E64732061726520616374697665206688
:103980006F7220636F6E66696775726174696F6EBE
:103990003A0A2020247379732053686F7720737953
:1039A0007374656D202867656E6572616C2920737C
:1039B000657474696E67730A2020243120202053B7
:1039C000686F77206D6F746F722031207365747427
:1039D000696E677320286F722077686174657665F9
:1039E00072206D6F746F7220796F752077616E74BD
:1039F00020312C322C332C34290A2020247820200A
:103A00002053686F7720582061786973207365743C
:103A100074696E677320286F7220776861746576A9
:103A20006572206178697320796F752077616E7493
:103A300020782C792C7A2C612C622C63290A202086
:103A4000246D20202053686F7720616C6C206D6F8F
:103A5000746F722073657474696E67730A20202412
:103A60007120202053686F7720616C6C2061786929
:103A7000732073657474696E67730A2020246F2045
:103A8000202053686F7720616C6C206F66667365C9
:103A9000742073657474696E67730A20202424206F
:103AA000202053686F7720616C6C20736574746993
:103AB0006E67730A2020246820202053686F7720C7
:103AC000746869732068656C702073637265656ED5
:103AD0000A0A000A0A0A232323232054696E79471D
:103AE00020434F4E46494755524154494F4E204876
:103AF000656C7020232323230A000A4E6F74653AF5
:103B00002054696E79472067656E657261746573CC
:103B1000206175746F6D617469632073746174756D
:103B200073207265706F72747320627920646566A9
:103B300061756C740A546869732063616E206265F4
:103B40002064697361626C656420627920656E74BB
:103B50006572696E67202473763D300A536565206F
:103B60007468652077696B692062656C6F77206681
:103B70006F72206D6F72652064657461696C732E5D
:103B80000A00546865736520636F6D6D616E6473C0
:103B900020617265206163746976652066726F6D5D
:103BA0002074686520636F6D6D616E64206C696E52
:103BB000653A0A205E782020202020202020202026
:103BC00020202052657365742028636F6E74726FB5
:103BD0006C207829202D20736F66747761726520C0
:103BE00072657365740A20203F2020202020202049
:103BF0002020202020204D616368696E6520706F51
:103C0000736974696F6E20616E642067636F6465A9
:103C1000206D6F64656C2073746174650A202024C4
:103C20002020202020202020202020202053686FCA
:103C30007720616E642073657420636F6E666967B8
:103C400075726174696F6E2073657474696E6773E1
:103C50000A20202120202020202020202020202079
:103C60002046656564686F6C64202D2073746F70E6
:103C7000206D6F74696F6E20776974686F7574203A
:103C80006C6F73696E6720706F736974696F6E0A09
:103C900020207E20202020202020202020202020C6
:103CA0004379636C65205374617274202D207265B2
:103CB00073746172742066726F6D206665656468E6
:103CC0006F6C640A202068202020202020202020E3
:103CD0002020202053686F772074686973206865FE
:103CE0006C702073637265656E0A20202468202042
:103CF0002020202020202020202053686F77206360
:103D00006F6E66696775726174696F6E2068656C45
:103D1000702073637265656E0A2020247465737465
:103D20002020202020202020204C697374207365DF
:103D30006C662D74657374730A2020247465737423
:103D40003D4E2020202020202052756E2073656C6F
:103D5000662D74657374204E0A202024686F6D658B
:103D60003D312020202020202052756E20612068C7
:103D70006F6D696E67206379636C650A2020246427
:103D80006566613D3120202020202020526573741B
:103D90006F726520616C6C2073657474696E6773F3
:103DA00020746F2022666163746F727922206465CB
:103DB0006661756C74730A000A0A0A2323232320A0
:103DC00054696E79472048656C7020232323230AA9
:103DD00000E23EE53EEB3EF23EF73E003F0B3F1673
:103DE0003F223F2E3F3C3F533F623F6F3F7B3F8F21
:103DF0003F9C3FB13FB43FB73FBA3FC93FDE3FF3BF
:103E00003F0240124024403B404A40654068406BBE
:103E1000406E407140744077407A407D40804083DE
:103E20004086409B40B340C540DE40F4400A4122FA
:103E3000413A414C416A417F419341BB41BE41C13E
:103E400041C441C741CA41CD41D041EE410A421E61
:103E500042304245425D4279428D42A142BC4253CA
:103E6000595354454D205245414459004C6F6164AB
:103E7000696E6720636F6E666967732066726F6D27
:103E800020454550524F4D00496E697469616C6917
:103E90007A696E6720636F6E6669677320746F203E
:103EA00064656661756C742073657474696E67739C
:103EB000007B226572223A7B226662223A25302EEE
:103EC00032662C227374223A25642C226D73672289
:103ED0003A222573222C2276616C223A25647D7D5C
:103EE0000A004F4B004572726F720045616761694D
:103EF0006E004E6F6F7000436F6D706C657465007F
:103F00005465726D696E6174656400486172642005
:103F1000726573657400456E64206F66206C696E0F
:103F20006500456E64206F662066696C65004669B1
:103F30006C65206E6F74206F70656E004D61782027
:103F400066696C652073697A652065786365656468
:103F50006564004E6F2073756368206465766963DD
:103F6000650042756666657220656D707479004201
:103F700075666665722066756C6C0042756666656E
:103F8000722066756C6C202D20666174616C00492E
:103F90006E697469616C697A696E6700456E7465F3
:103FA00072696E6720626F6F74206C6F61646572F6
:103FB00000313700313800313900496E7465726E56
:103FC000616C206572726F7200496E7465726E6109
:103FD0006C2072616E6765206572726F7200466C4C
:103FE0006F6174696E6720706F696E74206572729C
:103FF0006F7200446976696465206279207A65721F
:104000006F00496E76616C69642041646472657307
:104010007300526561642D6F6E6C79206164647207
:1040200065737300496E697469616C697A6174695A
:104030006F6E206661696C75726500537973746583
:104040006D20616C61726D6564004D656D6F727994
:10405000206661756C74206F7220636F7272757068
:1040600074696F6E003239003330003331003332FF
:104070000033330033340033350033360033370038
:10408000333800333900556E7265636F676E697A35
:10409000656420636F6D6D616E6400457870656363
:1040A00074656420636F6D6D616E64206C657474FB
:1040B000657200426164206E756D62657220666F84
:1040C000726D617400496E70757420657863656502
:1040D0006473206D6178206C656E67746800496E4A
:1040E0007075742076616C756520746F6F20736DC8
:1040F000616C6C00496E7075742076616C7565201A
:10410000746F6F206C6172676500496E7075742002
:1041100076616C75652072616E6765206572726F7D
:104120007200496E7075742076616C756520756ECD
:10413000737570706F72746564004A534F4E2073CC
:10414000796E746178206572726F72004A534F4EB7
:1041500020696E7075742068617320746F6F206DB4
:10416000616E79207061697273004A534F4E206FFF
:10417000757470757420746F6F206C6F6E67004F6C
:104180007574206F66206275666665722073706153
:10419000636500436F6E666967206E6F742074619B
:1041A0006B656E20647572696E67206D6163686906
:1041B0006E696E67206379636C6500353300353452
:1041C00000353500353600353700353800353900D3
:1041D0004D6F7665206C657373207468616E206D19
:1041E000696E696D756D206C656E677468004D6FE2
:1041F0007665206C657373207468616E206D696EDE
:10420000696D756D2074696D650047636F64652025
:10421000626C6F636B20736B6970706564004763D9
:104220006F646520696E707574206572726F7200BC
:1042300047636F64652066656564726174652065B7
:1042400072726F720047636F6465206178697320D2
:10425000776F7264206D697373696E670047636F6F
:104260006465206D6F64616C2067726F7570207675
:10427000696F6C6174696F6E00486F6D696E67205D
:104280006379636C65206661696C6564004D617873
:104290002074726176656C20657863656564656419
:1042A000004D6178207370696E646C652073706571
:1042B00065642065786365656465640041726320A8
:1042C00073706563696669636174696F6E20657296
:1042D000726F7200284D53472A2A2A2A20536D6F85
:1042E0006B652054657374205B76315D202A2A2A21
:1042F0002A290A47303020473137204732312047BA
:1043000034302047343920473830204739300A6765
:1043100030783079307A300A673030207834300A9B
:1043200078300A7934300A79300A7A34300A7A30AF
:104330000A6134300A61300A473030207834302046
:10434000793430207A3430206134300A47303020DC
:104350007830207930207A302061300A473031209F
:10436000663230302078313020793130207A313067
:10437000206131300A7830207930207A3020613065
:104380000A473032206631303030302078302079A2
:1043900030207A343020693237206A32370A473089
:1043A0003320663130303030207830207930207A38
:1043B0003020693237206A32370A673078307930F6
:1043C0007A300A6D33673470310A6D356734703175
:1043D0000A6D34673470310A6D33673470310A6D99
:1043E00035673470310A6D37673470310A6D39675B
:1043F0003470310A6D38673470310A6D390A6730AC
:1044000078310A673078300A6D3200284D53472AD8
:104410002A2A2A20486F6D696E67205465737420BC
:104420005B76315D202A2A2A2A290A6732382E3201
:10443000783079307A300A6D333000284D53472A6E
:104440002A2A2A2053717561726573204D6F746931
:104450006F6E2054657374205B76315D202A2A2AA2
:104460002A290A673030673137673231673430675D
:1044700034396738306739300A6730783079300A34
:1044800067307832302028747261766572736520E7
:10449000612032306D6D2073717561726520696EB7
:1044A000205820616E642059290A7932300A783008
:1044B0000A79300A67317831306635303020286427
:1044C00072617720612031306D6D2073717561727A
:1044D0006520696E205820616E6420592061742027
:1044E00046353030290A7931300A78300A79300A75
:1044F00067307A3230202874726176657273652075
:10450000612032306D6D2073717561726520696E46
:10451000205820616E64205A290A7832300A7A3095
:104520000A78300A67317832307932307A32306640
:1045300035303020286665656420612032306D6D2D
:1045400020646961676F6E616C20696E20582C2051
:104550005920616E64205A290A783079307A300AFD
:104560007834307934307A3430202874726176654A
:1045700072736520612034306D6D20637562652033
:10458000696E20582C205920616E64205A290A78BF
:10459000343079307A300A78307934307A34300AED
:1045A0007834307934307A300A783079307A34306F
:1045B0000A78307934307A300A78343079307A3485
:1045C000300A783079307A300A6738300A673078C4
:1045D0003079300A673078310A673078300A6D33C5
:1045E00030002F286D73672A2A2A2A2041726320FF
:1045F00054657374205B76315D202A2A2A2A290AA1
:104600004E31206730306731376732316734306779
:1046100034396738306739300A4E313020673078A6
:104620003079300A4E323020663530300A4E333021
:10463000206732783130792D31306931302028438C
:1046400057203237302064656772656573290A4EDA
:104650003430206730783079300A4E353020673377
:10466000783130792D31306931302028434357205B
:1046700039302064656772656573290A4E363020CB
:104680006730783079300A4E3830206732783230EF
:104690007930693130202843572031383020646523
:1046A0006772656573290A4E373020673078307934
:1046B000300A4E3830206733783230793069313003
:1046C0002028434357203138302064656772656580
:1046D00073290A4E3930206730783079300A4E39E4
:1046E000392046313230300A4E313030206732784E
:1046F00030793069323020284357203336302064F7
:10470000656772656573290A4E31313020673278EA
:1047100030793069323020284357203336302061D9
:104720006761696E290A4E31323020663730302099
:10473000284368616E6765206665656420726174F0
:1047400065207768696C6520696E204732206D6F3F
:1047500074696F6E206D6F6465290A4E31333020A5
:104760006732783079306932302028435720333629
:1047700030203372642074696D65290A4E313430FB
:10478000206732783079306932302028435720331F
:104790003630203474682074696D65290A4E3135CD
:1047A0003020663530300A4E31363020673378306D
:1047B00079307A34306932302028434357203336F9
:1047C0003020646567726565732077697468206C52
:1047D000696E6561722074726176656C290A4E316A
:1047E0003730206733783079307A3069323020289A
:1047F0004343572033363020616761696E290A4E82
:10480000313830206637303020286D73672A2A2AE5
:104810002A4368616E67652066656564207261740D
:1048200065207768696C6520696E204733206D6F5D
:1048300074696F6E206D6F64652A2A2A2A290A4ED0
:10484000313930206733783079306932302028436D
:10485000435720333630203372642074696D6529E4
:104860000A4E323030206733783079306932302068
:104870002843435720333630203474682074696DE0
:1048800065290A4E32313020286D73672A2A2A2A78
:10489000473138204576616C20746573742A2A2A62
:1048A0002A290A4E323230204731205833302E37F1
:1048B0003037205A35302E37323720463530300ADF
:1048C0004E32333020473138204730322058363787
:1048D0002E373338205A32332E3631372052323584
:1048E00020463235300A4E323430206738300A4E96
:1048F000323530206730783079307A300A4E3236AF
:1049000030206D333000284D53472A2A2A2A20446C
:1049100077656C6C2054657374205B76315D202A5A
:104920002A2A2A290A6730306731376732316739D6
:10493000300A6735350A6730783079300A663530A5
:10494000300A67307831300A673470310A6730785E
:1049500032300A673470310A67307831300A673490
:1049600070310A67307830300A673470310A79352F
:104970000A6735340A6730783079300A6D330A6750
:104980003470310A67307831307931300A6D350A48
:10499000673470310A67307832307932300A6D34DA
:1049A0000A673470310A67307833307933300A6DF2
:1049B000380A673470310A67307834307934300A15
:1049C0006D390A673470310A67307835307935309F
:1049D0000A6730783079300A6D333000284D5347FC
:1049E0002A2A2A2A2046656564686F6C642054650B
:1049F0007374205B76315D202A2A2A2A290A284DE1
:104A000053472A2A2A2A204D616E75616C6C7920E1
:104A1000656E746572202120616E64207E2064754D
:104A200072696E67206D6F76656D656E7420746F48
:104A30002074657374202A2A2A2A290A6735350AC0
:104A40006730783079300A673470330A67303067FE
:104A50003137673231673430673439673830673916
:104A6000300A663630300A67307831303076373683
:104A70002E3736350A783079300A6735340A673090
:104A8000783079300A6D333000284D53472A2A2A6E
:104A90002A204D636F6465732074657374205B76A0
:104AA000315D202A2A2A2A290A6735350A67307893
:104AB0003079300A6D330A673470310A6D350A6710
:104AC0003470310A6D340A673470310A6D350A6703
:104AD0003470310A6D370A673470310A6D390A67EC
:104AE0003470310A6D380A673470310A6D390A66DC
:104AF0003530300A67307832300A7932300A6D3317
:104B00000A78300A6D340A79300A6D350A673178CF
:104B100031300A6D370A7931300A6D380A78300A37
:104B20006D390A79300A6732783130792D31306940
:104B300031300A6D330A6730783079300A6D340AC3
:104B40006733783130792D31306931300A6D350A6B
:104B50006730783079300A6D370A673278323079C9
:104B6000306931300A6D380A6730783079300A6D33
:104B7000390A673378323079306931300A673078F2
:104B80003079300A6732783079306931300A6733EA
:104B9000783079306931300A6735340A67307830D7
:104BA00079300A6D3330007B226763223A22673006
:104BB00030673137673231673430673439673830BE
:104BC000673930227D0A7B226763223A22673535B6
:104BD000227D0A7B226763223A226730783079305F
:104BE000227D0A7B226763223A2266353030227D9D
:104BF0000A7B226763223A22284D534773717561FD
:104C000072657329227D0A7B226763223A2267300C
:104C1000783230227D0A7B226763223A2279323051
:104C2000227D0A7B226763223A227830227D0A7B2A
:104C3000226763223A227930227D0A7B226763222F
:104C40003A226731783130227D0A7B226763223A2B
:104C500022793130227D0A7B226763223A22783022
:104C6000227D0A7B226763223A227930227D0A7BE9
:104C7000226763223A22284D5347636972636C6549
:104C80007329227D0A7B226763223A2267327831B8
:104C900030792D3130693130227D0A7B22676322E1
:104CA0003A22673078307930227D0A7B226763228E
:104CB0003A226733783130792D3130693130227DB5
:104CC0000A7B226763223A22673078307930227D6E
:104CD0000A7B226763223A22673278323079306960
:104CE0003130227D0A7B226763223A226730783096
:104CF0007930227D0A7B226763223A226733783239
:104D0000307930693130227D0A7B226763223A2272
:104D1000673078307930227D0A7B226763223A221D
:104D2000673278307930693130227D0A7B226763BF
:104D3000223A22673378307930693130227D0A7B1C
:104D4000226763223A22673534227D0A7B22676319
:104D5000223A22673078307930227D0A7B226763DD
:104D6000223A226D3330227D00284D53472A2A2AC9
:104D70002A20496E76657273652054696D65204DF1
:104D80006F74696F6E2054657374205B76315D209B
:104D90002A2A2A2A290A6730306731376732316771
:104DA00034306734396738306739300A6735350A47
:104DB0006730783079300A6739330A66302E3031FF
:104DC0000A67317831300A7931300A7A31300A6134
:104DD00031300A78300A79300A7A300A61300A674D
:104DE000317831307931307A2D31306131300A67A4
:104DF00030783079307A3061300A66302E310A6787
:104E000032783130792D31307A2D32306931300AB3
:104E10006730783079307A300A6733783130792DDD
:104E200031307A2D32306931300A6730783079305C
:104E30007A300A673278323079307A2D32306931FF
:104E4000300A6730783079307A300A673378323018
:104E500079306931300A6730783079307A300A67D2
:104E600032783079307A2D33306931300A673378CF
:104E70003079307A306931300A6730783079307A79
:104E8000300A673278307930693230202843572031
:104E90003336302064656772656573290A67337835
:104EA0003079306932302028434357203336302060
:104EB00064656772656573290A6739340A67353432
:104EC0000A6730783079300A6D333000284D534707
:104ED0002A2A2A2A20526F746172792041786973D4
:104EE000204D6F74696F6E2054657374205B76314A
:104EF0005D202A2A2A2A290A67303067313767322B
:104F0000316734306734396738306739300A673091
:104F1000783079307A306130623063300A67353505
:104F20000A6730783079300A6633363030300A67B5
:104F300030613336300A623336300A633336300A32
:104F400061300A62300A63300A67316131343430CB
:104F50000A62313434300A63313434300A61300A41
:104F600062300A63300A673161313434306237327B
:104F700030633336300A783079307A3061306230DD
:104F800063300A6731783630613134343062373219
:104F900030633336300A783079307A3061306230BD
:104FA00063300A67317836307935306131343430E6
:104FB00062373230633336300A783079307A306194
:104FC00030623063300A6731783630793530783284
:104FD00035613134343062373230633336300A78F9
:104FE0003079307A306130623063300A6735340AA4
:104FF0006730783079300A6D333000284D53472AB6
:105000002A2A2A2054657374207665727920736881
:105010006F7274206D6F766573205B76315D202A28
:105020002A2A2A290A6730783079300A67347030A2
:105030002E350A673178302E3166313030300A78BB
:10504000300A78302E310A78300A78302E310A78DA
:10505000300A78302E310A78300A78302E310A78CA
:10506000300A78302E310A78300A78302E310A78BA
:10507000300A78302E310A78300A78302E310A78AA
:10508000300A78302E310A78300A78302E310A789A
:10509000300A78302E310A78300A78302E310A788A
:1050A000300A78302E310A78300A78302E310A678B
:1050B0003470302E350A78300A78302E30310A7844
:1050C000300A78302E30310A78300A78302E30317C
:1050D0000A78300A78302E30310A78300A78302E4B
:1050E00030310A78300A78302E30310A78300A7838
:1050F000302E30310A78300A78302E30310A78304C
:105100000A78302E30310A78300A78302E30310A61
:1051100078300A78302E30310A78300A78302E30E4
:10512000310A78300A78302E30310A78300A7830F7
:105130002E30310A6730783079300A6D3200284DD0
:1051400053472A2A2A2A20546573742061636375A1
:1051500072616379206F6620736C6F77206D6F7654
:105160006573205B76315D202A2A2A2A290A673551
:10517000350A6730783079300A673470302E350A56
:10518000673470302E350A67317831306632320A32
:105190006735340A6730783079300A6D333000284B
:1051A0004D53472A2A2A2A20436F6F7264696E6121
:1051B0007465206F666673657473207465737420FC
:1051C0005B76315D202A2A2A2A290A673030673126
:1051D0003767323167343067343967383067393090
:1051E0000A6735340A673932783079307A300A669E
:1051F0003630300A284D53472A2A2A2A20746573EC
:105200007420473932206F6666736574732A2A2AC0
:105210002A290A286D73675374657020313A204D2E
:105220006F76652066726F6D20302C3020746F2091
:1052300033302C30206D6D20696E20706F7369746F
:10524000697665205820646972656374696F6E2998
:105250000A286D73675374657020323A2052657363
:105260006574206F726967696E20746F20302E300C
:10527000207573696E6720473932290A286D736774
:105280005374657020333A204D6F766520746F201B
:1052900032302C302E2053686F756C64206D6F7621
:1052A00065203230206D6D20696E20706F736974D7
:1052B000697665205820646972656374696F6E2031
:1052C000616E6420737461747573207265706F729F
:1052D000742073686F756C642073746172742066D7
:1052E000726F6D20302C30290A286D7367537465F6
:1052F0007020343A204D6F766520746F20302E3048
:1053000020202053686F756C64206D6F76652032A5
:1053100030206D6D20696E206E65676174697665F9
:10532000205820646972656374696F6E20616E64D1
:1053300020737461747573207265706F727420735A
:10534000686F756C642073746172742066726F6D1F
:105350002032302C30290A67317833300A673932ED
:1053600078300A67317832300A6731783079300A1C
:105370002473720A67393278300A673470302E35F8
:105380000A284D53472A2A2A2A2074657374204715
:105390003535206F6666736574732A2A2A2A290AAE
:1053A000286D73675374657020313A2053657420FB
:1053B000436F6F7264696E6174652073797374658D
:1053C0006D2032205B6735355D20746F206F666617
:1053D000736574206F662035302C3530290A286DAE
:1053E00073675374657020323A2053656C6563743B
:1053F0002047353520636F6F7264696E6174652074
:1054000073797374656D290A286D736753746570B9
:1054100020333A204D6F766520746F20302C302E6B
:1054200020486561642073686F756C64206D6F76C9
:105430006520646961676F6E616C6C7920696E20AC
:105440002B5820616E64202B5920616E6420737488
:1054500061747573207265706F72742073686F75F4
:105460006C642073746172742066726F6D20302CCE
:1054700030290A6731304C32703278353079353026
:105480000A6735350A6730783079300A673470300A
:105490002E350A284D53472A2A2A2A207465737408
:1054A00020473533206162736F6C757465206F76A9
:1054B00065727269646573202A2A2A2A290A286D6E
:1054C00073675374657020313A2052756E206120E5
:1054D00073717561726520696E2047353520737967
:1054E0007374656D290A286D736753746570203273
:1054F0003A2052756E206120737175617265207754
:105500002F473533206F76657272696465290A67A3
:1055100030783079300A673078323079300A673045
:105520007832307932300A673078307932300A6731
:1055300030783079300A673470302E350A67353369
:105540006730783079300A673533673078323079B0
:10555000300A67353367307832307932300A673550
:1055600033673078307932300A67353367307830D6
:1055700079300A6730783079300A673470302E35E8
:105580000A284D53472A2A2A2A2074657374205208
:10559000657475726E20746F20686F6D65202A2A9D
:1055A0002A2A290A286D73675374657020313A20BE
:1055B00052657475726E20746F20686F6D6520750A
:1055C00073696E6720473238290A286D73675374F0
:1055D000657020323A20526573657420746F2047DD
:1055E000353420636F6F72642073797374656D292D
:1055F0000A6732380A6735340A6D333000284D5354
:10560000472A2A2A2A204D6963726F7374657020B5
:1056100054657374205B76315D202A2A2A2A290A70
:10562000473030204731372047323120473430204F
:1056300047343920473830204739300A67307830CE
:1056400079307A300A7B22316D69223A317D0A7BCA
:1056500022326D69223A317D0A7B22336D69223A0A
:10566000317D0A7B22346D69223A317D0A67302010
:105670007831300A7B22316D69223A327D0A7830E6
:105680000A7B22316D69223A347D0A7831300A7BF7
:1056900022316D69223A387D0A78300A67302079E4
:1056A00031300A7B22326D69223A327D0A79300A22
:1056B0007B22326D69223A347D0A7931300A7B22AD
:1056C000326D69223A387D0A79300A6730207A31A2
:1056D000300A7B22336D69223A327D0A7A300A7BA6
:1056E00022336D69223A347D0A7A31300A7B2233C3
:1056F0006D69223A387D0A7A300A6730206131308C
:105700000A7B22346D69223A327D0A61300A7B229B
:10571000346D69223A347D0A6131300A7B22346D5E
:1057200069223A387D0A61300A6D32004E312047D5
:1057300032300A4E3520473430204731370A4E3157
:1057400030205431204D30360A284E31352047392B
:1057500030204730205830205930205A30290A4E06
:105760003230205335303030204D3033200A4E3225
:10577000352058302E3036342059302E33323620F2
:105780005A300A4E343020473031204631362E30E0
:105790000A4E35302058302E3036342059302E33D2
:1057A00032360A4E35352058302E303630205930BA
:1057B0002E3239330A4E36302058302E30373720CB
:1057C00059302E3236370A4E36352058302E313188
:1057D000312059302E3235370A4E37302058302E8E
:1057E0003134392059302E3235320A4E373520586F
:1057F000302E3138382059302E3235350A4E383077
:105800002058302E3232372059302E3236380A4E58
:1058100038352058302E3235372059302E32373136
:105820000A4E39302058302E3333352059302E323D
:1058300036350A4E39352058302E34313220593021
:105840002E3237310A4E3130302058302E34373432
:105850002059302E3238370A4E3130352058302E0C
:105860003439312059302E3238390A4E3131302016
:1058700058302E3531372059302E3237330A4E31D9
:1058800031352058302E3534342059302E323633CD
:105890000A4E3132302058302E3538302059302ED3
:1058A0003236310A4E3132352058302E35393520D6
:1058B00059302E3236330A4E3133302058302E369E
:1058C00032312059302E3237340A4E313335205898
:1058D000302E3635392059302E3330360A4E313499
:1058E000302058302E3637332059302E3333350A96
:1058F0004E3134352058302E3637392059302E333A
:1059000036310A4E3135302058302E36373820594E
:10591000302E3338390A4E3135352058302E36374F
:10592000302059302E3432300A4E31363020583043
:105930002E3637302059302E3434360A4E31363533
:105940002058302E3638302059302E3437340A4E15
:105950003137302058302E3730342059302E3439FA
:10596000370A4E3137352058302E373332205930F0
:105970002E3531350A4E3138302058302E373934F3
:105980002059302E3533350A4E3138352058302ED7
:105990003837322059302E3536370A4E31393020DB
:1059A00058302E3935302059302E3630340A4E31A9
:1059B00039352058312E3033312059302E36343796
:1059C0000A4E3230302058312E3134392059302EA1
:1059D0003732320A4E3230352058312E33303820AB
:1059E00059302E3835340A4E3231302058312E3469
:1059F00033302059302E3938340A4E323135205860
:105A0000312E3434372059302E3938360A4E32325E
:105A1000302058312E3632382059302E3832320A62
:105A20004E3232352058312E3733322059302E370E
:105A300031340A4E3233302058322E30303920592A
:105A4000302E3338310A4E3233352058322E313130
:105A5000362059302E3236360A4E32343020583203
:105A60002E3232382059302E3135370A4E32343505
:105A70002058322E3238302059302E3132330A4EEF
:105A80003235302058322E3333322059302E3039CF
:105A9000340A4E3235352058322E343233205930C4
:105AA0002E3037300A4E3236302058322E343839C4
:105AB0002059302E3036350A4E3236352058322EA7
:105AC0003535372059302E3036360A4E32373020B1
:105AD00058322E3632372059302E3038340A4E3272
